{
  "_format": "hh-sol-artifact-1",
  "contractName": "EnergyTrading",
  "sourceName": "contracts/EnergyTrading.sol",
  "abi": [
    {
      "inputs": [
        {
          "internalType": "address",
          "name": "_energyCredits",
          "type": "address"
        },
        {
          "internalType": "address",
          "name": "_carbonCredits",
          "type": "address"
        }
      ],
      "stateMutability": "nonpayable",
      "type": "constructor"
    },
    {
      "inputs": [],
      "name": "EnforcedPause",
      "type": "error"
    },
    {
      "inputs": [],
      "name": "ExpectedPause",
      "type": "error"
    },
    {
      "inputs": [
        {
          "internalType": "address",
          "name": "owner",
          "type": "address"
        }
      ],
      "name": "OwnableInvalidOwner",
      "type": "error"
    },
    {
      "inputs": [
        {
          "internalType": "address",
          "name": "account",
          "type": "address"
        }
      ],
      "name": "OwnableUnauthorizedAccount",
      "type": "error"
    },
    {
      "inputs": [],
      "name": "ReentrancyGuardReentrantCall",
      "type": "error"
    },
    {
      "anonymous": false,
      "inputs": [
        {
          "indexed": true,
          "internalType": "uint256",
          "name": "transactionId",
          "type": "uint256"
        },
        {
          "indexed": true,
          "internalType": "address",
          "name": "buyer",
          "type": "address"
        },
        {
          "indexed": false,
          "internalType": "uint256",
          "name": "energyAmount",
          "type": "uint256"
        }
      ],
      "name": "EnergyDelivered",
      "type": "event"
    },
    {
      "anonymous": false,
      "inputs": [
        {
          "indexed": true,
          "internalType": "uint256",
          "name": "offerId",
          "type": "uint256"
        },
        {
          "indexed": true,
          "internalType": "address",
          "name": "seller",
          "type": "address"
        }
      ],
      "name": "EnergyOfferCancelled",
      "type": "event"
    },
    {
      "anonymous": false,
      "inputs": [
        {
          "indexed": true,
          "internalType": "uint256",
          "name": "offerId",
          "type": "uint256"
        },
        {
          "indexed": true,
          "internalType": "address",
          "name": "seller",
          "type": "address"
        },
        {
          "indexed": false,
          "internalType": "uint256",
          "name": "energyAmount",
          "type": "uint256"
        },
        {
          "indexed": false,
          "internalType": "uint256",
          "name": "pricePerKWh",
          "type": "uint256"
        },
        {
          "indexed": false,
          "internalType": "string",
          "name": "energyType",
          "type": "string"
        }
      ],
      "name": "EnergyOfferCreated",
      "type": "event"
    },
    {
      "anonymous": false,
      "inputs": [
        {
          "indexed": true,
          "internalType": "uint256",
          "name": "offerId",
          "type": "uint256"
        },
        {
          "indexed": false,
          "internalType": "uint256",
          "name": "newPrice",
          "type": "uint256"
        },
        {
          "indexed": false,
          "internalType": "uint256",
          "name": "newAmount",
          "type": "uint256"
        }
      ],
      "name": "EnergyOfferUpdated",
      "type": "event"
    },
    {
      "anonymous": false,
      "inputs": [
        {
          "indexed": true,
          "internalType": "uint256",
          "name": "offerId",
          "type": "uint256"
        },
        {
          "indexed": true,
          "internalType": "address",
          "name": "buyer",
          "type": "address"
        },
        {
          "indexed": true,
          "internalType": "address",
          "name": "seller",
          "type": "address"
        },
        {
          "indexed": false,
          "internalType": "uint256",
          "name": "energyAmount",
          "type": "uint256"
        },
        {
          "indexed": false,
          "internalType": "uint256",
          "name": "totalCost",
          "type": "uint256"
        }
      ],
      "name": "EnergyPurchased",
      "type": "event"
    },
    {
      "anonymous": false,
      "inputs": [
        {
          "indexed": true,
          "internalType": "address",
          "name": "previousOwner",
          "type": "address"
        },
        {
          "indexed": true,
          "internalType": "address",
          "name": "newOwner",
          "type": "address"
        }
      ],
      "name": "OwnershipTransferred",
      "type": "event"
    },
    {
      "anonymous": false,
      "inputs": [
        {
          "indexed": false,
          "internalType": "address",
          "name": "account",
          "type": "address"
        }
      ],
      "name": "Paused",
      "type": "event"
    },
    {
      "anonymous": false,
      "inputs": [
        {
          "indexed": false,
          "internalType": "uint256",
          "name": "oldFee",
          "type": "uint256"
        },
        {
          "indexed": false,
          "internalType": "uint256",
          "name": "newFee",
          "type": "uint256"
        }
      ],
      "name": "TradingFeeUpdated",
      "type": "event"
    },
    {
      "anonymous": false,
      "inputs": [
        {
          "indexed": false,
          "internalType": "address",
          "name": "account",
          "type": "address"
        }
      ],
      "name": "Unpaused",
      "type": "event"
    },
    {
      "inputs": [],
      "name": "MAX_TRADING_FEE",
      "outputs": [
        {
          "internalType": "uint256",
          "name": "",
          "type": "uint256"
        }
      ],
      "stateMutability": "view",
      "type": "function"
    },
    {
      "inputs": [
        {
          "internalType": "uint256",
          "name": "_offerId",
          "type": "uint256"
        }
      ],
      "name": "cancelEnergyOffer",
      "outputs": [],
      "stateMutability": "nonpayable",
      "type": "function"
    },
    {
      "inputs": [],
      "name": "carbonCredits",
      "outputs": [
        {
          "internalType": "contract CarbonCredits",
          "name": "",
          "type": "address"
        }
      ],
      "stateMutability": "view",
      "type": "function"
    },
    {
      "inputs": [
        {
          "internalType": "uint256",
          "name": "_energyAmount",
          "type": "uint256"
        },
        {
          "internalType": "uint256",
          "name": "_pricePerKWh",
          "type": "uint256"
        },
        {
          "internalType": "string",
          "name": "_energyType",
          "type": "string"
        },
        {
          "internalType": "string",
          "name": "_location",
          "type": "string"
        },
        {
          "internalType": "uint256",
          "name": "_expiresInHours",
          "type": "uint256"
        }
      ],
      "name": "createEnergyOffer",
      "outputs": [
        {
          "internalType": "uint256",
          "name": "",
          "type": "uint256"
        }
      ],
      "stateMutability": "nonpayable",
      "type": "function"
    },
    {
      "inputs": [
        {
          "internalType": "string",
          "name": "",
          "type": "string"
        }
      ],
      "name": "currentMarketPrice",
      "outputs": [
        {
          "internalType": "uint256",
          "name": "",
          "type": "uint256"
        }
      ],
      "stateMutability": "view",
      "type": "function"
    },
    {
      "inputs": [],
      "name": "emergencyWithdraw",
      "outputs": [],
      "stateMutability": "nonpayable",
      "type": "function"
    },
    {
      "inputs": [],
      "name": "energyCredits",
      "outputs": [
        {
          "internalType": "contract EnergyCredits",
          "name": "",
          "type": "address"
        }
      ],
      "stateMutability": "view",
      "type": "function"
    },
    {
      "inputs": [
        {
          "internalType": "uint256",
          "name": "",
          "type": "uint256"
        }
      ],
      "name": "energyOffers",
      "outputs": [
        {
          "internalType": "uint256",
          "name": "id",
          "type": "uint256"
        },
        {
          "internalType": "address",
          "name": "seller",
          "type": "address"
        },
        {
          "internalType": "uint256",
          "name": "energyAmount",
          "type": "uint256"
        },
        {
          "internalType": "uint256",
          "name": "pricePerKWh",
          "type": "uint256"
        },
        {
          "internalType": "string",
          "name": "energyType",
          "type": "string"
        },
        {
          "internalType": "string",
          "name": "location",
          "type": "string"
        },
        {
          "internalType": "uint256",
          "name": "timestamp",
          "type": "uint256"
        },
        {
          "internalType": "bool",
          "name": "active",
          "type": "bool"
        },
        {
          "internalType": "uint256",
          "name": "expiresAt",
          "type": "uint256"
        }
      ],
      "stateMutability": "view",
      "type": "function"
    },
    {
      "inputs": [
        {
          "internalType": "uint256",
          "name": "",
          "type": "uint256"
        }
      ],
      "name": "energyTransactions",
      "outputs": [
        {
          "internalType": "uint256",
          "name": "id",
          "type": "uint256"
        },
        {
          "internalType": "uint256",
          "name": "offerId",
          "type": "uint256"
        },
        {
          "internalType": "address",
          "name": "buyer",
          "type": "address"
        },
        {
          "internalType": "address",
          "name": "seller",
          "type": "address"
        },
        {
          "internalType": "uint256",
          "name": "energyAmount",
          "type": "uint256"
        },
        {
          "internalType": "uint256",
          "name": "totalCost",
          "type": "uint256"
        },
        {
          "internalType": "uint256",
          "name": "timestamp",
          "type": "uint256"
        },
        {
          "internalType": "enum EnergyTrading.TransactionStatus",
          "name": "status",
          "type": "uint8"
        },
        {
          "internalType": "string",
          "name": "deliveryDetails",
          "type": "string"
        }
      ],
      "stateMutability": "view",
      "type": "function"
    },
    {
      "inputs": [
        {
          "internalType": "string",
          "name": "",
          "type": "string"
        }
      ],
      "name": "energyTypeVolume",
      "outputs": [
        {
          "internalType": "uint256",
          "name": "",
          "type": "uint256"
        }
      ],
      "stateMutability": "view",
      "type": "function"
    },
    {
      "inputs": [
        {
          "internalType": "string",
          "name": "_energyType",
          "type": "string"
        }
      ],
      "name": "getActiveOffers",
      "outputs": [
        {
          "internalType": "uint256[]",
          "name": "",
          "type": "uint256[]"
        }
      ],
      "stateMutability": "view",
      "type": "function"
    },
    {
      "inputs": [
        {
          "internalType": "string",
          "name": "_energyType",
          "type": "string"
        }
      ],
      "name": "getMarketPrice",
      "outputs": [
        {
          "internalType": "uint256",
          "name": "",
          "type": "uint256"
        },
        {
          "internalType": "uint256",
          "name": "",
          "type": "uint256"
        }
      ],
      "stateMutability": "view",
      "type": "function"
    },
    {
      "inputs": [],
      "name": "getMarketStats",
      "outputs": [
        {
          "internalType": "uint256",
          "name": "totalActiveOffers",
          "type": "uint256"
        },
        {
          "internalType": "uint256",
          "name": "totalTransactions",
          "type": "uint256"
        },
        {
          "internalType": "uint256",
          "name": "totalVolumeTraded",
          "type": "uint256"
        }
      ],
      "stateMutability": "view",
      "type": "function"
    },
    {
      "inputs": [
        {
          "internalType": "address",
          "name": "_user",
          "type": "address"
        }
      ],
      "name": "getUserOffers",
      "outputs": [
        {
          "internalType": "uint256[]",
          "name": "",
          "type": "uint256[]"
        }
      ],
      "stateMutability": "view",
      "type": "function"
    },
    {
      "inputs": [
        {
          "internalType": "address",
          "name": "_user",
          "type": "address"
        }
      ],
      "name": "getUserTransactions",
      "outputs": [
        {
          "internalType": "uint256[]",
          "name": "",
          "type": "uint256[]"
        }
      ],
      "stateMutability": "view",
      "type": "function"
    },
    {
      "inputs": [
        {
          "internalType": "uint256",
          "name": "_transactionId",
          "type": "uint256"
        },
        {
          "internalType": "string",
          "name": "_deliveryDetails",
          "type": "string"
        }
      ],
      "name": "markEnergyDelivered",
      "outputs": [],
      "stateMutability": "nonpayable",
      "type": "function"
    },
    {
      "inputs": [],
      "name": "nextOfferId",
      "outputs": [
        {
          "internalType": "uint256",
          "name": "",
          "type": "uint256"
        }
      ],
      "stateMutability": "view",
      "type": "function"
    },
    {
      "inputs": [],
      "name": "nextTransactionId",
      "outputs": [
        {
          "internalType": "uint256",
          "name": "",
          "type": "uint256"
        }
      ],
      "stateMutability": "view",
      "type": "function"
    },
    {
      "inputs": [],
      "name": "owner",
      "outputs": [
        {
          "internalType": "address",
          "name": "",
          "type": "address"
        }
      ],
      "stateMutability": "view",
      "type": "function"
    },
    {
      "inputs": [],
      "name": "pause",
      "outputs": [],
      "stateMutability": "nonpayable",
      "type": "function"
    },
    {
      "inputs": [],
      "name": "paused",
      "outputs": [
        {
          "internalType": "bool",
          "name": "",
          "type": "bool"
        }
      ],
      "stateMutability": "view",
      "type": "function"
    },
    {
      "inputs": [
        {
          "internalType": "string",
          "name": "",
          "type": "string"
        }
      ],
      "name": "priceUpdateTime",
      "outputs": [
        {
          "internalType": "uint256",
          "name": "",
          "type": "uint256"
        }
      ],
      "stateMutability": "view",
      "type": "function"
    },
    {
      "inputs": [
        {
          "internalType": "uint256",
          "name": "_offerId",
          "type": "uint256"
        },
        {
          "internalType": "uint256",
          "name": "_energyAmount",
          "type": "uint256"
        }
      ],
      "name": "purchaseEnergy",
      "outputs": [
        {
          "internalType": "uint256",
          "name": "",
          "type": "uint256"
        }
      ],
      "stateMutability": "nonpayable",
      "type": "function"
    },
    {
      "inputs": [],
      "name": "renounceOwnership",
      "outputs": [],
      "stateMutability": "nonpayable",
      "type": "function"
    },
    {
      "inputs": [
        {
          "internalType": "uint256",
          "name": "_newRate",
          "type": "uint256"
        }
      ],
      "name": "setTradingFeeRate",
      "outputs": [],
      "stateMutability": "nonpayable",
      "type": "function"
    },
    {
      "inputs": [
        {
          "internalType": "address",
          "name": "",
          "type": "address"
        }
      ],
      "name": "totalEnergyTraded",
      "outputs": [
        {
          "internalType": "uint256",
          "name": "",
          "type": "uint256"
        }
      ],
      "stateMutability": "view",
      "type": "function"
    },
    {
      "inputs": [
        {
          "internalType": "address",
          "name": "",
          "type": "address"
        }
      ],
      "name": "totalTransactionCount",
      "outputs": [
        {
          "internalType": "uint256",
          "name": "",
          "type": "uint256"
        }
      ],
      "stateMutability": "view",
      "type": "function"
    },
    {
      "inputs": [],
      "name": "tradingFeeRate",
      "outputs": [
        {
          "internalType": "uint256",
          "name": "",
          "type": "uint256"
        }
      ],
      "stateMutability": "view",
      "type": "function"
    },
    {
      "inputs": [
        {
          "internalType": "address",
          "name": "newOwner",
          "type": "address"
        }
      ],
      "name": "transferOwnership",
      "outputs": [],
      "stateMutability": "nonpayable",
      "type": "function"
    },
    {
      "inputs": [],
      "name": "unpause",
      "outputs": [],
      "stateMutability": "nonpayable",
      "type": "function"
    },
    {
      "inputs": [
        {
          "internalType": "uint256",
          "name": "_offerId",
          "type": "uint256"
        },
        {
          "internalType": "uint256",
          "name": "_newPrice",
          "type": "uint256"
        },
        {
          "internalType": "uint256",
          "name": "_newAmount",
          "type": "uint256"
        }
      ],
      "name": "updateEnergyOffer",
      "outputs": [],
      "stateMutability": "nonpayable",
      "type": "function"
    },
    {
      "inputs": [
        {
          "internalType": "address",
          "name": "",
          "type": "address"
        },
        {
          "internalType": "uint256",
          "name": "",
          "type": "uint256"
        }
      ],
      "name": "userOffers",
      "outputs": [
        {
          "internalType": "uint256",
          "name": "",
          "type": "uint256"
        }
      ],
      "stateMutability": "view",
      "type": "function"
    },
    {
      "inputs": [
        {
          "internalType": "address",
          "name": "",
          "type": "address"
        },
        {
          "internalType": "uint256",
          "name": "",
          "type": "uint256"
        }
      ],
      "name": "userTransactions",
      "outputs": [
        {
          "internalType": "uint256",
          "name": "",
          "type": "uint256"
        }
      ],
      "stateMutability": "view",
      "type": "function"
    }
  ],
  "bytecode": "0x60806040526001600455600160055560fa6006553480156200002057600080fd5b5060405162002959380380620029598339810160408190526200004391620001e1565b33806200006a57604051631e4fbdf760e01b81526000600482015260240160405180910390fd5b620000758162000174565b5060018055600280546001600160a01b038085166001600160a01b03199283161790925560038054928416929091169190911790556040516702a303fe4b53000090600e90620000d0906439b7b630b960d91b815260050190565b90815260405190819003602001812091909155631dda5b9960e21b815267027f7d0bdb92000090600e906004019081526040519081900360200181209190915564687964726f60d81b815267025bf6196bd1000090600e90600501908152604051908190036020018120919091556673746f7261676560c81b81526702c68af0bb14000090600e906007019081526040519081900360200190205550620002199050565b600080546001600160a01b038381166001600160a01b0319831681178455604051919092169283917f8be0079c531659141344cd1fd0a4f28419497f9722a3daafe3b4186f6b6457e09190a35050565b80516001600160a01b0381168114620001dc57600080fd5b919050565b60008060408385031215620001f557600080fd5b6200020083620001c4565b91506200021060208401620001c4565b90509250929050565b61273080620002296000396000f3fe608060405234801561001057600080fd5b50600436106101fb5760003560e01c8063959e90ff1161011a578063da044de1116100ad578063e01df1a81161007c578063e01df1a8146104b7578063eeb7f65a146104c0578063ef925399146104c9578063f2fde38b146104dc578063ff4cd5b9146104ef57600080fd5b8063da044de11461045e578063db2e21bc14610489578063dc62d54c14610491578063df9820de146104a457600080fd5b8063b842ec44116100e9578063b842ec4414610407578063bd5fec651461041a578063d7ca38f31461042d578063d9ded3be1461043657600080fd5b8063959e90ff146103895780639ef067c3146103a9578063a5b7d835146103d4578063aa648d31146103e757600080fd5b80634a5a5f0d11610192578063715018a611610161578063715018a6146103405780638456cb59146103485780638da5cb5b1461035057806393e8f6811461036157600080fd5b80634a5a5f0d146102dc5780635c975abb146103075780635f5d065514610324578063661d2c2c1461032d57600080fd5b80632d201c71116101ce5780632d201c711461028657806335920637146102995780633f4ba83a146102ac5780633fa2f801146102b457600080fd5b806303b5baae146102005780631091f67c1461022657806316f0db5e1461023b57806329b4010d14610266575b600080fd5b61021361020e366004611ef1565b610512565b6040519081526020015b60405180910390f35b610239610234366004611f13565b610cae565b005b60035461024e906001600160a01b031681565b6040516001600160a01b03909116815260200161021d565b610279610274366004611fcf565b610d41565b60405161021d919061200c565b610213610294366004612050565b610eb2565b6102396102a73660046120cf565b61120f565b610239611327565b6102c76102c2366004611f13565b611339565b60405161021d99989796959493929190612166565b6102136102ea366004611fcf565b8051602081830181018051600e8252928201919093012091525481565b600054600160a01b900460ff16604051901515815260200161021d565b61021360045481565b61027961033b3660046121ed565b6114a2565b61023961150e565b610239611520565b6000546001600160a01b031661024e565b61037461036f366004611f13565b611530565b60405161021d99989796959493929190612225565b6102136103973660046121ed565b600c6020526000908152604090205481565b6102136103b7366004611fcf565b8051602081830181018051600f8252928201919093012091525481565b6102396103e2366004611f13565b611616565b6102136103f53660046121ed565b600b6020526000908152604090205481565b6102136104153660046122a7565b611707565b6102136104283660046122a7565b611738565b61021360055481565b610449610444366004611fcf565b611754565b6040805192835260208301919091520161021d565b61021361046c366004611fcf565b8051602081830181018051600d8252928201919093012091525481565b61023961179e565b60025461024e906001600160a01b031681565b6102396104b23660046122d1565b6118b4565b61021360065481565b6102136103e881565b6102796104d73660046121ed565b611baa565b6102396104ea3660046121ed565b611c14565b6104f7611c4f565b6040805193845260208401929092529082015260600161021d565b600061051c611d15565b610524611d40565b60008381526007602081905260409091200154839060ff166105615760405162461bcd60e51b8152600401610558906122fd565b60405180910390fd5b60008181526007602052604090206008015442106105915760405162461bcd60e51b815260040161055890612327565b60008481526007602052604090206001810154336001600160a01b03909116036105fd5760405162461bcd60e51b815260206004820152601860248201527f43616e6e6f74206275792066726f6d20796f757273656c6600000000000000006044820152606401610558565b6000841161064d5760405162461bcd60e51b815260206004820152601e60248201527f456e6572677920616d6f756e74206d75737420626520706f73697469766500006044820152606401610558565b80600201548411156106a15760405162461bcd60e51b815260206004820152601b60248201527f4e6f7420656e6f75676820656e6572677920617661696c61626c6500000000006044820152606401610558565b6000670de0b6b3a76400008260030154866106bc9190612364565b6106c6919061237b565b90506000612710600654836106db9190612364565b6106e5919061237b565b905060006106f3828461239d565b6002546040516370a0823160e01b815233600482015291925084916001600160a01b03909116906370a0823190602401602060405180830381865afa158015610740573d6000803e3d6000fd5b505050506040513d601f19601f8201168201806040525081019061076491906123b0565b10156107a95760405162461bcd60e51b8152602060048201526014602482015273496e73756666696369656e74206372656469747360601b6044820152606401610558565b60025460018501546040516323b872dd60e01b81523360048201526001600160a01b039182166024820152604481018490529116906323b872dd906064016020604051808303816000875af1158015610806573d6000803e3d6000fd5b505050506040513d601f19601f8201168201806040525081019061082a91906123c9565b6108765760405162461bcd60e51b815260206004820152601960248201527f5472616e7366657220746f2073656c6c6572206661696c6564000000000000006044820152606401610558565b811561095a576002546001600160a01b03166323b872dd336108a06000546001600160a01b031690565b6040516001600160e01b031960e085901b1681526001600160a01b03928316600482015291166024820152604481018590526064016020604051808303816000875af11580156108f4573d6000803e3d6000fd5b505050506040513d601f19601f8201168201806040525081019061091891906123c9565b61095a5760405162461bcd60e51b8152602060048201526013602482015272119959481d1c985b9cd9995c8819985a5b1959606a1b6044820152606401610558565b60035460405163465f121760e01b81526001600160a01b039091169063465f1217906109909033908b906004808b019101612425565b600060405180830381600087803b1580156109aa57600080fd5b505af11580156109be573d6000803e3d6000fd5b505060058054600093509150826109d4836124c7565b909155506040805161012081018252828152602081018c905233918101919091526001808801546001600160a01b03166060830152608082018b905260a082018790524260c08301529192509060e08201908152604080516020818101835260008083529381019190915284835260088152918190208351815591830151600180840191909155908301516002830180546001600160a01b039283166001600160a01b0319918216179091556060850151600385018054919093169116179055608083015160048084019190915560a0840151600584015560c0840151600684015560e08401516007840180549193909260ff19909216918490811115610add57610add61220f565b02179055506101008201516008820190610af7908261252f565b5050336000818152600a60209081526040808320805460018181018355918552838520018790558a8101546001600160a01b0316845281842080549182018155845282842001869055928252600b905290812080548b9350909190610b5d9084906125ef565b909155505060018501546001600160a01b03166000908152600b6020526040812080548a9290610b8e9084906125ef565b9091555050336000908152600c60205260408120805491610bae836124c7565b909155505060018501546001600160a01b03166000908152600c60205260408120805491610bdb836124c7565b919050555087600d86600401604051610bf49190612675565b90815260200160405180910390206000828254610c1191906125ef565b9250508190555087856002016000828254610c2c919061239d565b90915550506002850154600003610c4a5760078501805460ff191690555b6001850154604080518a8152602081018790526001600160a01b039092169133918c917f12cf6843df230dff5c8306a3113a5aac775144198c3f4dfe127764b6db1fbb01910160405180910390a495505050505050610ca860018055565b92915050565b610cb6611d6a565b6103e8811115610cfc5760405162461bcd60e51b815260206004820152601160248201527008ccaca40e4c2e8ca40e8dede40d0d2ced607b1b6044820152606401610558565b600680549082905560408051828152602081018490527f048ced0cbfd080780177282231c1bcf4b2e117ba3c76f5081b3dbab6dc6e1e1b910160405180910390a15050565b604080516064808252610ca082019092526060916000919060208201610c8080368337019050509050600060015b600454811015610e0d5760008181526007602081905260409091209081015460ff168015610da05750428160080154115b8015610dc9575085516020870120604051610dbf906004840190612675565b6040518091039020145b15610dfa5781848481518110610de157610de1612681565b602090810291909101015282610df6816124c7565b9350505b5080610e05816124c7565b915050610d6f565b5060008167ffffffffffffffff811115610e2957610e29611f2c565b604051908082528060200260200182016040528015610e52578160200160208202803683370190505b50905060005b82811015610ea957838181518110610e7257610e72612681565b6020026020010151828281518110610e8c57610e8c612681565b602090810291909101015280610ea1816124c7565b915050610e58565b50949350505050565b6000610ebc611d15565b610ec4611d40565b60008611610f145760405162461bcd60e51b815260206004820152601e60248201527f456e6572677920616d6f756e74206d75737420626520706f73697469766500006044820152606401610558565b60008511610f5d5760405162461bcd60e51b81526020600482015260166024820152755072696365206d75737420626520706f73697469766560501b6044820152606401610558565b600082118015610f6e575060a88211155b610fba5760405162461bcd60e51b815260206004820152601a60248201527f457870697279206d75737420626520312d31363820686f7572730000000000006044820152606401610558565b6002546040516308c6a56b60e31b815233600482015287916001600160a01b0316906346352b5890602401602060405180830381865afa158015611002573d6000803e3d6000fd5b505050506040513d601f19601f8201168201806040525081019061102691906123b0565b10156110745760405162461bcd60e51b815260206004820152601b60248201527f496e73756666696369656e7420656e657267792062616c616e636500000000006044820152606401610558565b6004805460009182611085836124c7565b909155509050600061109984610e10612364565b6110a390426125ef565b60408051610120810182528481523360208083019182528284018d8152606084018d8152608085018d815260a086018d90524260c0870152600160e08701819052610100870189905260008b815260079095529690932085518155935195840180546001600160a01b0319166001600160a01b0390971696909617909555516002830155925160038201559151929350916004820190611143908261252f565b5060a08201516005820190611158908261252f565b5060c0820151600682015560e082015160078201805460ff191691151591909117905561010090910151600890910155336000908152600960209081526040822080546001810182559083529120018290556111b48688611d97565b336001600160a01b0316827fc5a6f62bafa4df37cd3b82d91ca56f42b79ac20bdb61644576423a79479737b68a8a8a6040516111f293929190612697565b60405180910390a350905061120660018055565b95945050505050565b611217611d15565b600082815260086020526040902060038101546001600160a01b031633146112515760405162461bcd60e51b8152600401610558906126b6565b6001600782015460ff16600481111561126c5761126c61220f565b146112b95760405162461bcd60e51b815260206004820152601a60248201527f496e76616c6964207472616e73616374696f6e207374617475730000000000006044820152606401610558565b60078101805460ff19166002179055600881016112d6838261252f565b50600281015460048201546040519081526001600160a01b039091169084907fb7c6127474d555d667e2b6e8f41f87780c18b13b5a7c05e3900a9463658b7b959060200160405180910390a3505050565b61132f611d6a565b611337611ddf565b565b6007602052600090815260409020805460018201546002830154600384015460048501805494956001600160a01b039094169492939192611379906123eb565b80601f01602080910402602001604051908101604052809291908181526020018280546113a5906123eb565b80156113f25780601f106113c7576101008083540402835291602001916113f2565b820191906000526020600020905b8154815290600101906020018083116113d557829003601f168201915b505050505090806005018054611407906123eb565b80601f0160208091040260200160405190810160405280929190818152602001828054611433906123eb565b80156114805780601f1061145557610100808354040283529160200191611480565b820191906000526020600020905b81548152906001019060200180831161146357829003601f168201915b50505050600683015460078401546008909401549293909260ff909116915089565b6001600160a01b03811660009081526009602090815260409182902080548351818402810184019094528084526060939283018282801561150257602002820191906000526020600020905b8154815260200190600101908083116114ee575b50505050509050919050565b611516611d6a565b6113376000611e34565b611528611d6a565b611337611e84565b6008602081905260009182526040909120805460018201546002830154600384015460048501546005860154600687015460078801549888018054979996986001600160a01b0396871698969095169693959294919360ff1692611593906123eb565b80601f01602080910402602001604051908101604052809291908181526020018280546115bf906123eb565b801561160c5780601f106115e15761010080835404028352916020019161160c565b820191906000526020600020905b8154815290600101906020018083116115ef57829003601f168201915b5050505050905089565b61161e611d15565b60008181526007602081905260409091200154819060ff166116525760405162461bcd60e51b8152600401610558906122fd565b60008181526007602052604090206008015442106116825760405162461bcd60e51b815260040161055890612327565b60008281526007602052604090206001015482906001600160a01b031633146116bd5760405162461bcd60e51b8152600401610558906126b6565b6000838152600760208190526040808320909101805460ff1916905551339185917fdf473057e83fa79fd20eb05bcec4a560999876ccd04c4497220727cd1b1c59469190a3505050565b600a602052816000526040600020818154811061172357600080fd5b90600052602060002001600091509150505481565b6009602052816000526040600020818154811061172357600080fd5b600080600e8360405161176791906126de565b908152602001604051809103902054600f8460405161178691906126de565b90815260200160405180910390205491509150915091565b6117a6611d6a565b6002546040516370a0823160e01b81523060048201526000916001600160a01b0316906370a0823190602401602060405180830381865afa1580156117ef573d6000803e3d6000fd5b505050506040513d601f19601f8201168201806040525081019061181391906123b0565b905080156118b1576002546001600160a01b031663a9059cbb61183e6000546001600160a01b031690565b6040516001600160e01b031960e084901b1681526001600160a01b039091166004820152602481018490526044016020604051808303816000875af115801561188b573d6000803e3d6000fd5b505050506040513d601f19601f820116820180604052508101906118af91906123c9565b505b50565b6118bc611d15565b60008381526007602081905260409091200154839060ff166118f05760405162461bcd60e51b8152600401610558906122fd565b60008181526007602052604090206008015442106119205760405162461bcd60e51b815260040161055890612327565b60008481526007602052604090206001015484906001600160a01b0316331461195b5760405162461bcd60e51b8152600401610558906126b6565b600084116119a45760405162461bcd60e51b81526020600482015260166024820152755072696365206d75737420626520706f73697469766560501b6044820152606401610558565b600083116119f45760405162461bcd60e51b815260206004820152601760248201527f416d6f756e74206d75737420626520706f7369746976650000000000000000006044820152606401610558565b6000858152600760205260409081902060025491516308c6a56b60e31b8152336004820152909185916001600160a01b03909116906346352b5890602401602060405180830381865afa158015611a4f573d6000803e3d6000fd5b505050506040513d601f19601f82011682018060405250810190611a7391906123b0565b1015611ac15760405162461bcd60e51b815260206004820152601b60248201527f496e73756666696369656e7420656e657267792062616c616e636500000000006044820152606401610558565b6003810185905560028101849055600481018054611b679190611ae3906123eb565b80601f0160208091040260200160405190810160405280929190818152602001828054611b0f906123eb565b8015611b5c5780601f10611b3157610100808354040283529160200191611b5c565b820191906000526020600020905b815481529060010190602001808311611b3f57829003601f168201915b505050505086611d97565b604080518681526020810186905287917f4960d2b13af30a91f3541d958953543fb130af34f500bf479393b54ffab98886910160405180910390a2505050505050565b6001600160a01b0381166000908152600a602090815260409182902080548351818402810184019094528084526060939283018282801561150257602002820191906000526020600020908154815260200190600101908083116114ee5750505050509050919050565b611c1c611d6a565b6001600160a01b038116611c4657604051631e4fbdf760e01b815260006004820152602401610558565b6118b181611e34565b60008080808060015b600454811015611cb9576000818152600760208190526040909120015460ff168015611c94575060008181526007602052604090206008015442105b15611ca75782611ca3816124c7565b9350505b80611cb1816124c7565b915050611c58565b5060015b600554811015611cf757600081815260086020526040902060040154611ce390836125ef565b915080611cef816124c7565b915050611cbd565b50816001600554611d08919061239d565b9096909550909350915050565b600054600160a01b900460ff16156113375760405163d93c066560e01b815260040160405180910390fd5b600260015403611d6357604051633ee5aeb560e01b815260040160405180910390fd5b6002600155565b6000546001600160a01b031633146113375760405163118cdaa760e01b8152336004820152602401610558565b80600e83604051611da891906126de565b90815260200160405180910390208190555042600f83604051611dcb91906126de565b908152604051908190036020019020555050565b611de7611ec7565b6000805460ff60a01b191690557f5db9ee0a495bf2e6ff9c91a7834c1ba4fdd244a5e8aa4e537bd38aeae4b073aa335b6040516001600160a01b03909116815260200160405180910390a1565b600080546001600160a01b038381166001600160a01b0319831681178455604051919092169283917f8be0079c531659141344cd1fd0a4f28419497f9722a3daafe3b4186f6b6457e09190a35050565b611e8c611d15565b6000805460ff60a01b1916600160a01b1790557f62e78cea01bee320cd4e420270b5ea74000d11b0c9f74754ebdbfc544b05a258611e173390565b600054600160a01b900460ff1661133757604051638dfc202b60e01b815260040160405180910390fd5b60008060408385031215611f0457600080fd5b50508035926020909101359150565b600060208284031215611f2557600080fd5b5035919050565b634e487b7160e01b600052604160045260246000fd5b600082601f830112611f5357600080fd5b813567ffffffffffffffff80821115611f6e57611f6e611f2c565b604051601f8301601f19908116603f01168101908282118183101715611f9657611f96611f2c565b81604052838152866020858801011115611faf57600080fd5b836020870160208301376000602085830101528094505050505092915050565b600060208284031215611fe157600080fd5b813567ffffffffffffffff811115611ff857600080fd5b61200484828501611f42565b949350505050565b6020808252825182820181905260009190848201906040850190845b8181101561204457835183529284019291840191600101612028565b50909695505050505050565b600080600080600060a0868803121561206857600080fd5b8535945060208601359350604086013567ffffffffffffffff8082111561208e57600080fd5b61209a89838a01611f42565b945060608801359150808211156120b057600080fd5b506120bd88828901611f42565b95989497509295608001359392505050565b600080604083850312156120e257600080fd5b82359150602083013567ffffffffffffffff81111561210057600080fd5b61210c85828601611f42565b9150509250929050565b60005b83811015612131578181015183820152602001612119565b50506000910152565b60008151808452612152816020860160208601612116565b601f01601f19169290920160200192915050565b60006101208b835260018060a01b038b16602084015289604084015288606084015280608084015261219a8184018961213a565b905082810360a08401526121ae818861213a565b60c0840196909652505091151560e0830152610100909101529695505050505050565b80356001600160a01b03811681146121e857600080fd5b919050565b6000602082840312156121ff57600080fd5b612208826121d1565b9392505050565b634e487b7160e01b600052602160045260246000fd5b898152602081018990526001600160a01b038881166040830152871660608201526080810186905260a0810185905260c0810184905260006101206005851061227e57634e487b7160e01b600052602160045260246000fd5b8460e0840152806101008401526122978184018561213a565b9c9b505050505050505050505050565b600080604083850312156122ba57600080fd5b6122c3836121d1565b946020939093013593505050565b6000806000606084860312156122e657600080fd5b505081359360208301359350604090920135919050565b60208082526010908201526f4f66666572206e6f742061637469766560801b604082015260600190565b6020808252600d908201526c13d999995c88195e1c1a5c9959609a1b604082015260600190565b634e487b7160e01b600052601160045260246000fd5b8082028115828204841417610ca857610ca861234e565b60008261239857634e487b7160e01b600052601260045260246000fd5b500490565b81810381811115610ca857610ca861234e565b6000602082840312156123c257600080fd5b5051919050565b6000602082840312156123db57600080fd5b8151801515811461220857600080fd5b600181811c908216806123ff57607f821691505b60208210810361241f57634e487b7160e01b600052602260045260246000fd5b50919050565b60018060a01b0384168152600060208481840152606060408401526000845461244d816123eb565b806060870152608060018084166000811461246f5760018114612489576124b7565b60ff1985168984015283151560051b8901830195506124b7565b896000528660002060005b858110156124af5781548b8201860152908301908801612494565b8a0184019650505b50939a9950505050505050505050565b6000600182016124d9576124d961234e565b5060010190565b601f82111561252a57600081815260208120601f850160051c810160208610156125075750805b601f850160051c820191505b8181101561252657828155600101612513565b5050505b505050565b815167ffffffffffffffff81111561254957612549611f2c565b61255d8161255784546123eb565b846124e0565b602080601f831160018114612592576000841561257a5750858301515b600019600386901b1c1916600185901b178555612526565b600085815260208120601f198616915b828110156125c1578886015182559484019460019091019084016125a2565b50858210156125df5787850151600019600388901b60f8161c191681555b5050505050600190811b01905550565b80820180821115610ca857610ca861234e565b6000815461260f816123eb565b60018281168015612627576001811461263c5761266b565b60ff198416875282151583028701945061266b565b8560005260208060002060005b858110156126625781548a820152908401908201612649565b50505082870194505b5050505092915050565b60006122088284612602565b634e487b7160e01b600052603260045260246000fd5b838152826020820152606060408201526000611206606083018461213a565b6020808252600e908201526d2737ba103a34329039b2b63632b960911b604082015260600190565b600082516126f0818460208701612116565b919091019291505056fea2646970667358221220333389bb8c4679d4dcfbc548f887f42819f0b1b75e977990a58eafe0b6f8688d64736f6c63430008140033",
  "linkReferences": {},
  "deployedLinkReferences": {}
}