{
  "_format": "hh-sol-artifact-1",
  "contractName": "EnergyCredits",
  "sourceName": "contracts/EnergyCredits.sol",
  "abi": [
    {
      "inputs": [],
      "stateMutability": "nonpayable",
      "type": "constructor"
    },
    {
      "inputs": [
        {
          "internalType": "address",
          "name": "spender",
          "type": "address"
        },
        {
          "internalType": "uint256",
          "name": "allowance",
          "type": "uint256"
        },
        {
          "internalType": "uint256",
          "name": "needed",
          "type": "uint256"
        }
      ],
      "name": "ERC20InsufficientAllowance",
      "type": "error"
    },
    {
      "inputs": [
        {
          "internalType": "address",
          "name": "sender",
          "type": "address"
        },
        {
          "internalType": "uint256",
          "name": "balance",
          "type": "uint256"
        },
        {
          "internalType": "uint256",
          "name": "needed",
          "type": "uint256"
        }
      ],
      "name": "ERC20InsufficientBalance",
      "type": "error"
    },
    {
      "inputs": [
        {
          "internalType": "address",
          "name": "approver",
          "type": "address"
        }
      ],
      "name": "ERC20InvalidApprover",
      "type": "error"
    },
    {
      "inputs": [
        {
          "internalType": "address",
          "name": "receiver",
          "type": "address"
        }
      ],
      "name": "ERC20InvalidReceiver",
      "type": "error"
    },
    {
      "inputs": [
        {
          "internalType": "address",
          "name": "sender",
          "type": "address"
        }
      ],
      "name": "ERC20InvalidSender",
      "type": "error"
    },
    {
      "inputs": [
        {
          "internalType": "address",
          "name": "spender",
          "type": "address"
        }
      ],
      "name": "ERC20InvalidSpender",
      "type": "error"
    },
    {
      "inputs": [],
      "name": "EnforcedPause",
      "type": "error"
    },
    {
      "inputs": [],
      "name": "ExpectedPause",
      "type": "error"
    },
    {
      "inputs": [
        {
          "internalType": "address",
          "name": "owner",
          "type": "address"
        }
      ],
      "name": "OwnableInvalidOwner",
      "type": "error"
    },
    {
      "inputs": [
        {
          "internalType": "address",
          "name": "account",
          "type": "address"
        }
      ],
      "name": "OwnableUnauthorizedAccount",
      "type": "error"
    },
    {
      "inputs": [],
      "name": "ReentrancyGuardReentrantCall",
      "type": "error"
    },
    {
      "anonymous": false,
      "inputs": [
        {
          "indexed": true,
          "internalType": "address",
          "name": "owner",
          "type": "address"
        },
        {
          "indexed": true,
          "internalType": "address",
          "name": "spender",
          "type": "address"
        },
        {
          "indexed": false,
          "internalType": "uint256",
          "name": "value",
          "type": "uint256"
        }
      ],
      "name": "Approval",
      "type": "event"
    },
    {
      "anonymous": false,
      "inputs": [
        {
          "indexed": true,
          "internalType": "address",
          "name": "to",
          "type": "address"
        },
        {
          "indexed": false,
          "internalType": "uint256",
          "name": "amount",
          "type": "uint256"
        },
        {
          "indexed": false,
          "internalType": "string",
          "name": "reason",
          "type": "string"
        }
      ],
      "name": "EnergyCreditsIssued",
      "type": "event"
    },
    {
      "anonymous": false,
      "inputs": [
        {
          "indexed": true,
          "internalType": "address",
          "name": "from",
          "type": "address"
        },
        {
          "indexed": false,
          "internalType": "uint256",
          "name": "amount",
          "type": "uint256"
        },
        {
          "indexed": false,
          "internalType": "uint256",
          "name": "energyAmount",
          "type": "uint256"
        }
      ],
      "name": "EnergyCreditsRedeemed",
      "type": "event"
    },
    {
      "anonymous": false,
      "inputs": [
        {
          "indexed": true,
          "internalType": "address",
          "name": "buyer",
          "type": "address"
        },
        {
          "indexed": true,
          "internalType": "address",
          "name": "seller",
          "type": "address"
        },
        {
          "indexed": false,
          "internalType": "uint256",
          "name": "amount",
          "type": "uint256"
        },
        {
          "indexed": false,
          "internalType": "uint256",
          "name": "energyAmount",
          "type": "uint256"
        }
      ],
      "name": "EnergyPurchased",
      "type": "event"
    },
    {
      "anonymous": false,
      "inputs": [
        {
          "indexed": true,
          "internalType": "address",
          "name": "previousOwner",
          "type": "address"
        },
        {
          "indexed": true,
          "internalType": "address",
          "name": "newOwner",
          "type": "address"
        }
      ],
      "name": "OwnershipTransferred",
      "type": "event"
    },
    {
      "anonymous": false,
      "inputs": [
        {
          "indexed": false,
          "internalType": "address",
          "name": "account",
          "type": "address"
        }
      ],
      "name": "Paused",
      "type": "event"
    },
    {
      "anonymous": false,
      "inputs": [
        {
          "indexed": true,
          "internalType": "address",
          "name": "from",
          "type": "address"
        },
        {
          "indexed": true,
          "internalType": "address",
          "name": "to",
          "type": "address"
        },
        {
          "indexed": false,
          "internalType": "uint256",
          "name": "value",
          "type": "uint256"
        }
      ],
      "name": "Transfer",
      "type": "event"
    },
    {
      "anonymous": false,
      "inputs": [
        {
          "indexed": false,
          "internalType": "address",
          "name": "account",
          "type": "address"
        }
      ],
      "name": "Unpaused",
      "type": "event"
    },
    {
      "inputs": [],
      "name": "INITIAL_SUPPLY",
      "outputs": [
        {
          "internalType": "uint256",
          "name": "",
          "type": "uint256"
        }
      ],
      "stateMutability": "view",
      "type": "function"
    },
    {
      "inputs": [],
      "name": "MAX_SUPPLY",
      "outputs": [
        {
          "internalType": "uint256",
          "name": "",
          "type": "uint256"
        }
      ],
      "stateMutability": "view",
      "type": "function"
    },
    {
      "inputs": [
        {
          "internalType": "address",
          "name": "_minter",
          "type": "address"
        }
      ],
      "name": "addMinter",
      "outputs": [],
      "stateMutability": "nonpayable",
      "type": "function"
    },
    {
      "inputs": [
        {
          "internalType": "address",
          "name": "owner",
          "type": "address"
        },
        {
          "internalType": "address",
          "name": "spender",
          "type": "address"
        }
      ],
      "name": "allowance",
      "outputs": [
        {
          "internalType": "uint256",
          "name": "",
          "type": "uint256"
        }
      ],
      "stateMutability": "view",
      "type": "function"
    },
    {
      "inputs": [
        {
          "internalType": "address",
          "name": "spender",
          "type": "address"
        },
        {
          "internalType": "uint256",
          "name": "value",
          "type": "uint256"
        }
      ],
      "name": "approve",
      "outputs": [
        {
          "internalType": "bool",
          "name": "",
          "type": "bool"
        }
      ],
      "stateMutability": "nonpayable",
      "type": "function"
    },
    {
      "inputs": [
        {
          "internalType": "address",
          "name": "",
          "type": "address"
        }
      ],
      "name": "authorizedMinters",
      "outputs": [
        {
          "internalType": "bool",
          "name": "",
          "type": "bool"
        }
      ],
      "stateMutability": "view",
      "type": "function"
    },
    {
      "inputs": [
        {
          "internalType": "address",
          "name": "account",
          "type": "address"
        }
      ],
      "name": "balanceOf",
      "outputs": [
        {
          "internalType": "uint256",
          "name": "",
          "type": "uint256"
        }
      ],
      "stateMutability": "view",
      "type": "function"
    },
    {
      "inputs": [
        {
          "internalType": "uint256",
          "name": "value",
          "type": "uint256"
        }
      ],
      "name": "burn",
      "outputs": [],
      "stateMutability": "nonpayable",
      "type": "function"
    },
    {
      "inputs": [
        {
          "internalType": "address",
          "name": "account",
          "type": "address"
        },
        {
          "internalType": "uint256",
          "name": "value",
          "type": "uint256"
        }
      ],
      "name": "burnFrom",
      "outputs": [],
      "stateMutability": "nonpayable",
      "type": "function"
    },
    {
      "inputs": [],
      "name": "decimals",
      "outputs": [
        {
          "internalType": "uint8",
          "name": "",
          "type": "uint8"
        }
      ],
      "stateMutability": "view",
      "type": "function"
    },
    {
      "inputs": [
        {
          "internalType": "address",
          "name": "",
          "type": "address"
        }
      ],
      "name": "energyBalance",
      "outputs": [
        {
          "internalType": "uint256",
          "name": "",
          "type": "uint256"
        }
      ],
      "stateMutability": "view",
      "type": "function"
    },
    {
      "inputs": [],
      "name": "energyToTokenRatio",
      "outputs": [
        {
          "internalType": "uint256",
          "name": "",
          "type": "uint256"
        }
      ],
      "stateMutability": "view",
      "type": "function"
    },
    {
      "inputs": [
        {
          "internalType": "uint256",
          "name": "_energyAmount",
          "type": "uint256"
        }
      ],
      "name": "energyToTokens",
      "outputs": [
        {
          "internalType": "uint256",
          "name": "",
          "type": "uint256"
        }
      ],
      "stateMutability": "view",
      "type": "function"
    },
    {
      "inputs": [
        {
          "internalType": "address",
          "name": "_user",
          "type": "address"
        }
      ],
      "name": "getEnergyBalance",
      "outputs": [
        {
          "internalType": "uint256",
          "name": "",
          "type": "uint256"
        }
      ],
      "stateMutability": "view",
      "type": "function"
    },
    {
      "inputs": [
        {
          "internalType": "address",
          "name": "_to",
          "type": "address"
        },
        {
          "internalType": "uint256",
          "name": "_energyAmount",
          "type": "uint256"
        },
        {
          "internalType": "string",
          "name": "_reason",
          "type": "string"
        }
      ],
      "name": "issueEnergyCredits",
      "outputs": [],
      "stateMutability": "nonpayable",
      "type": "function"
    },
    {
      "inputs": [],
      "name": "minimumEnergyAmount",
      "outputs": [
        {
          "internalType": "uint256",
          "name": "",
          "type": "uint256"
        }
      ],
      "stateMutability": "view",
      "type": "function"
    },
    {
      "inputs": [],
      "name": "name",
      "outputs": [
        {
          "internalType": "string",
          "name": "",
          "type": "string"
        }
      ],
      "stateMutability": "view",
      "type": "function"
    },
    {
      "inputs": [],
      "name": "owner",
      "outputs": [
        {
          "internalType": "address",
          "name": "",
          "type": "address"
        }
      ],
      "stateMutability": "view",
      "type": "function"
    },
    {
      "inputs": [],
      "name": "pause",
      "outputs": [],
      "stateMutability": "nonpayable",
      "type": "function"
    },
    {
      "inputs": [],
      "name": "paused",
      "outputs": [
        {
          "internalType": "bool",
          "name": "",
          "type": "bool"
        }
      ],
      "stateMutability": "view",
      "type": "function"
    },
    {
      "inputs": [
        {
          "internalType": "uint256",
          "name": "_energyAmount",
          "type": "uint256"
        }
      ],
      "name": "redeemEnergyCredits",
      "outputs": [],
      "stateMutability": "nonpayable",
      "type": "function"
    },
    {
      "inputs": [
        {
          "internalType": "address",
          "name": "_minter",
          "type": "address"
        }
      ],
      "name": "removeMinter",
      "outputs": [],
      "stateMutability": "nonpayable",
      "type": "function"
    },
    {
      "inputs": [],
      "name": "renounceOwnership",
      "outputs": [],
      "stateMutability": "nonpayable",
      "type": "function"
    },
    {
      "inputs": [
        {
          "internalType": "uint256",
          "name": "_ratio",
          "type": "uint256"
        }
      ],
      "name": "setEnergyToTokenRatio",
      "outputs": [],
      "stateMutability": "nonpayable",
      "type": "function"
    },
    {
      "inputs": [],
      "name": "symbol",
      "outputs": [
        {
          "internalType": "string",
          "name": "",
          "type": "string"
        }
      ],
      "stateMutability": "view",
      "type": "function"
    },
    {
      "inputs": [
        {
          "internalType": "uint256",
          "name": "_tokenAmount",
          "type": "uint256"
        }
      ],
      "name": "tokensToEnergy",
      "outputs": [
        {
          "internalType": "uint256",
          "name": "",
          "type": "uint256"
        }
      ],
      "stateMutability": "view",
      "type": "function"
    },
    {
      "inputs": [],
      "name": "totalSupply",
      "outputs": [
        {
          "internalType": "uint256",
          "name": "",
          "type": "uint256"
        }
      ],
      "stateMutability": "view",
      "type": "function"
    },
    {
      "inputs": [
        {
          "internalType": "address",
          "name": "to",
          "type": "address"
        },
        {
          "internalType": "uint256",
          "name": "value",
          "type": "uint256"
        }
      ],
      "name": "transfer",
      "outputs": [
        {
          "internalType": "bool",
          "name": "",
          "type": "bool"
        }
      ],
      "stateMutability": "nonpayable",
      "type": "function"
    },
    {
      "inputs": [
        {
          "internalType": "address",
          "name": "_to",
          "type": "address"
        },
        {
          "internalType": "uint256",
          "name": "_amount",
          "type": "uint256"
        },
        {
          "internalType": "uint256",
          "name": "_energyAmount",
          "type": "uint256"
        }
      ],
      "name": "transferEnergyCredits",
      "outputs": [
        {
          "internalType": "bool",
          "name": "",
          "type": "bool"
        }
      ],
      "stateMutability": "nonpayable",
      "type": "function"
    },
    {
      "inputs": [
        {
          "internalType": "address",
          "name": "from",
          "type": "address"
        },
        {
          "internalType": "address",
          "name": "to",
          "type": "address"
        },
        {
          "internalType": "uint256",
          "name": "value",
          "type": "uint256"
        }
      ],
      "name": "transferFrom",
      "outputs": [
        {
          "internalType": "bool",
          "name": "",
          "type": "bool"
        }
      ],
      "stateMutability": "nonpayable",
      "type": "function"
    },
    {
      "inputs": [
        {
          "internalType": "address",
          "name": "newOwner",
          "type": "address"
        }
      ],
      "name": "transferOwnership",
      "outputs": [],
      "stateMutability": "nonpayable",
      "type": "function"
    },
    {
      "inputs": [],
      "name": "unpause",
      "outputs": [],
      "stateMutability": "nonpayable",
      "type": "function"
    }
  ],
  "bytecode": "0x60806040526064600955670de0b6b3a7640000600a553480156200002257600080fd5b50336040518060400160405280601981526020017f506f776572436861696e20456e6572677920437265646974730000000000000081525060405180604001604052806002815260200161454360f01b8152508160039081620000869190620003c7565b506004620000958282620003c7565b5050506001600160a01b038116620000c857604051631e4fbdf760e01b8152600060048201526024015b60405180910390fd5b620000d3816200010f565b506001600655620000ef3369d3c21bcecceda100000062000161565b336000908152600760205260409020805460ff19166001179055620004bb565b600580546001600160a01b038381166001600160a01b0319831681179093556040519116919082907f8be0079c531659141344cd1fd0a4f28419497f9722a3daafe3b4186f6b6457e090600090a35050565b6001600160a01b0382166200018d5760405163ec442f0560e01b815260006004820152602401620000bf565b6200019b600083836200019f565b5050565b620001a9620001bb565b620001b6838383620001f0565b505050565b620001cf600554600160a01b900460ff1690565b15620001ee5760405163d93c066560e01b815260040160405180910390fd5b565b6001600160a01b0383166200021f57806002600082825462000213919062000493565b90915550620002939050565b6001600160a01b03831660009081526020819052604090205481811015620002745760405163391434e360e21b81526001600160a01b03851660048201526024810182905260448101839052606401620000bf565b6001600160a01b03841660009081526020819052604090209082900390555b6001600160a01b038216620002b157600280548290039055620002d0565b6001600160a01b03821660009081526020819052604090208054820190555b816001600160a01b0316836001600160a01b03167fddf252ad1be2c89b69c2b068fc378daa952ba7f163c4a11628f55a4df523b3ef836040516200031691815260200190565b60405180910390a3505050565b634e487b7160e01b600052604160045260246000fd5b600181811c908216806200034e57607f821691505b6020821081036200036f57634e487b7160e01b600052602260045260246000fd5b50919050565b601f821115620001b657600081815260208120601f850160051c810160208610156200039e5750805b601f850160051c820191505b81811015620003bf57828155600101620003aa565b505050505050565b81516001600160401b03811115620003e357620003e362000323565b620003fb81620003f4845462000339565b8462000375565b602080601f8311600181146200043357600084156200041a5750858301515b600019600386901b1c1916600185901b178555620003bf565b600085815260208120601f198616915b82811015620004645788860151825594840194600190910190840162000443565b5085821015620004835787850151600019600388901b60f8161c191681555b5050505050600190811b01905550565b80820180821115620004b557634e487b7160e01b600052601160045260246000fd5b92915050565b61152a80620004cb6000396000f3fe608060405234801561001057600080fd5b50600436106101f05760003560e01c806370c38d041161010f57806395d89b41116100a2578063aa2fe91b11610071578063aa2fe91b14610415578063dd62ed3e14610438578063ed7653e714610471578063f2fde38b1461049157600080fd5b806395d89b41146103d4578063983b2d56146103dc5780639e5c02d4146103ef578063a9059cbb1461040257600080fd5b80638456cb59116100de5780638456cb591461038b5780638da5cb5b1461039357806391eaa310146103ae57806395166089146103c157600080fd5b806370c38d041461034a578063715018a61461035d57806379cc67901461036557806381053ded1461037857600080fd5b8063313ce5671161018757806342966c681161015657806342966c68146102d357806346352b58146102e65780635c975abb1461030f57806370a082311461032157600080fd5b8063313ce567146102a157806332cb6b0c146102b05780633d83c2de146102c25780633f4ba83a146102cb57600080fd5b806323b872dd116101c357806323b872dd1461025f578063277e6f19146102725780632ff2e9dc1461027b5780633092afd51461028c57600080fd5b806306fdde03146101f5578063084ab3f214610213578063095ea7b31461023457806318160ddd14610257575b600080fd5b6101fd6104a4565b60405161020a9190611214565b60405180910390f35b610226610221366004611227565b610536565b60405190815260200161020a565b61024761024236600461125c565b61055e565b604051901515815260200161020a565b600254610226565b61024761026d366004611286565b610576565b610226600a5481565b61022669d3c21bcecceda100000081565b61029f61029a3660046112c2565b61059c565b005b6040516012815260200161020a565b6102266a52b7d2dcc80cd2e400000081565b61022660095481565b61029f6105c5565b61029f6102e1366004611227565b6105d7565b6102266102f43660046112c2565b6001600160a01b031660009081526008602052604090205490565b600554600160a01b900460ff16610247565b61022661032f3660046112c2565b6001600160a01b031660009081526020819052604090205490565b61029f610358366004611227565b6105e4565b61029f61078c565b61029f61037336600461125c565b61079e565b610226610386366004611227565b6107b7565b61029f6107d0565b6005546040516001600160a01b03909116815260200161020a565b6102476103bc3660046112dd565b6107e0565b61029f6103cf366004611227565b610a15565b6101fd610a6b565b61029f6103ea3660046112c2565b610a7a565b61029f6103fd366004611326565b610aa6565b61024761041036600461125c565b610c86565b6102476104233660046112c2565b60076020526000908152604090205460ff1681565b6102266104463660046113f1565b6001600160a01b03918216600090815260016020908152604080832093909416825291909152205490565b61022661047f3660046112c2565b60086020526000908152604090205481565b61029f61049f3660046112c2565b610c94565b6060600380546104b390611424565b80601f01602080910402602001604051908101604052809291908181526020018280546104df90611424565b801561052c5780601f106105015761010080835404028352916020019161052c565b820191906000526020600020905b81548152906001019060200180831161050f57829003601f168201915b5050505050905090565b60095460009061054e83670de0b6b3a7640000611474565b610558919061148b565b92915050565b60003361056c818585610ccf565b5060019392505050565b600033610584858285610cdc565b61058f858585610d5b565b60019150505b9392505050565b6105a4610dba565b6001600160a01b03166000908152600760205260409020805460ff19169055565b6105cd610dba565b6105d5610de7565b565b6105e13382610e3c565b50565b6105ec610e72565b600a5481101561063d5760405162461bcd60e51b8152602060048201526017602482015276115b995c99de48185b5bdd5b9d081d1bdbc81cdb585b1b604a1b60448201526064015b60405180910390fd5b3360009081526008602052604090205481111561069c5760405162461bcd60e51b815260206004820152601b60248201527f496e73756666696369656e7420656e657267792062616c616e636500000000006044820152606401610634565b6000670de0b6b3a7640000600954836106b59190611474565b6106bf919061148b565b336000908152602081905260409020549091508111156107185760405162461bcd60e51b8152602060048201526014602482015273496e73756666696369656e74206372656469747360601b6044820152606401610634565b6107223382610e3c565b33600090815260086020526040812080548492906107419084906114ad565b9091555050604080518281526020810184905233917f2cbbe311d6a9318b4667069ee780e64c0f5985c31ae2fa30e8abb30c0ecb04a6910160405180910390a2506105e16001600655565b610794610dba565b6105d56000610e9c565b6107a9823383610cdc565b6107b38282610e3c565b5050565b6000670de0b6b3a76400006009548361054e9190611474565b6107d8610dba565b6105d5610eee565b60006107ea610e72565b6000831161083a5760405162461bcd60e51b815260206004820152601760248201527f416d6f756e74206d75737420626520706f7369746976650000000000000000006044820152606401610634565b6000821161088a5760405162461bcd60e51b815260206004820152601e60248201527f456e6572677920616d6f756e74206d75737420626520706f73697469766500006044820152606401610634565b336000908152602081905260409020548311156108e05760405162461bcd60e51b8152602060048201526014602482015273496e73756666696369656e74206372656469747360601b6044820152606401610634565b6108eb338585610d5b565b60095460009061090385670de0b6b3a7640000611474565b61090d919061148b565b3360009081526008602052604090205490915081111561096f5760405162461bcd60e51b815260206004820152601b60248201527f496e73756666696369656e7420656e657267792062616c616e636500000000006044820152606401610634565b336000908152600860205260408120805483929061098e9084906114ad565b90915550506001600160a01b038516600090815260086020526040812080548392906109bb9084906114c0565b9091555050604080518581526020810185905233916001600160a01b038816917f1cbe81348d01d294ac68391c5ba74e03143dc0a19a85ee2dfb5adeca547fc5e2910160405180910390a360019150506105956001600655565b610a1d610dba565b60008111610a665760405162461bcd60e51b8152602060048201526016602482015275526174696f206d75737420626520706f73697469766560501b6044820152606401610634565b600955565b6060600480546104b390611424565b610a82610dba565b6001600160a01b03166000908152600760205260409020805460ff19166001179055565b3360009081526007602052604090205460ff1680610ace57506005546001600160a01b031633145b610b135760405162461bcd60e51b8152602060048201526016602482015275139bdd08185d5d1a1bdc9a5e9959081d1bc81b5a5b9d60521b6044820152606401610634565b610b1b610e72565b600a54821015610b675760405162461bcd60e51b8152602060048201526017602482015276115b995c99de48185b5bdd5b9d081d1bdbc81cdb585b1b604a1b6044820152606401610634565b6000670de0b6b3a764000060095484610b809190611474565b610b8a919061148b565b90506a52b7d2dcc80cd2e400000081610ba260025490565b610bac91906114c0565b1115610bfa5760405162461bcd60e51b815260206004820152601760248201527f576f756c6420657863656564206d617820737570706c790000000000000000006044820152606401610634565b610c048482610f31565b6001600160a01b03841660009081526008602052604081208054859290610c2c9084906114c0565b92505081905550836001600160a01b03167f68227fa559471d7d32b02986dfd1447f312af4c0dc8dc7a6e58ac1c365e3f86c8284604051610c6e9291906114d3565b60405180910390a250610c816001600655565b505050565b60003361056c818585610d5b565b610c9c610dba565b6001600160a01b038116610cc657604051631e4fbdf760e01b815260006004820152602401610634565b6105e181610e9c565b610c818383836001610f67565b6001600160a01b03838116600090815260016020908152604080832093861683529290522054600019811015610d555781811015610d4657604051637dc7a0d960e11b81526001600160a01b03841660048201526024810182905260448101839052606401610634565b610d5584848484036000610f67565b50505050565b6001600160a01b038316610d8557604051634b637e8f60e11b815260006004820152602401610634565b6001600160a01b038216610daf5760405163ec442f0560e01b815260006004820152602401610634565b610c8183838361103c565b6005546001600160a01b031633146105d55760405163118cdaa760e01b8152336004820152602401610634565b610def61104f565b6005805460ff60a01b191690557f5db9ee0a495bf2e6ff9c91a7834c1ba4fdd244a5e8aa4e537bd38aeae4b073aa335b6040516001600160a01b03909116815260200160405180910390a1565b6001600160a01b038216610e6657604051634b637e8f60e11b815260006004820152602401610634565b6107b38260008361103c565b600260065403610e9557604051633ee5aeb560e01b815260040160405180910390fd5b6002600655565b600580546001600160a01b038381166001600160a01b0319831681179093556040519116919082907f8be0079c531659141344cd1fd0a4f28419497f9722a3daafe3b4186f6b6457e090600090a35050565b610ef6611079565b6005805460ff60a01b1916600160a01b1790557f62e78cea01bee320cd4e420270b5ea74000d11b0c9f74754ebdbfc544b05a258610e1f3390565b6001600160a01b038216610f5b5760405163ec442f0560e01b815260006004820152602401610634565b6107b36000838361103c565b6001600160a01b038416610f915760405163e602df0560e01b815260006004820152602401610634565b6001600160a01b038316610fbb57604051634a1406b160e11b815260006004820152602401610634565b6001600160a01b0380851660009081526001602090815260408083209387168352929052208290558015610d5557826001600160a01b0316846001600160a01b03167f8c5be1e5ebec7d5bd14f71427d1e84f3dd0314c0f7b2291e5b200ac8c7c3b9258460405161102e91815260200190565b60405180910390a350505050565b611044611079565b610c818383836110a4565b600554600160a01b900460ff166105d557604051638dfc202b60e01b815260040160405180910390fd5b600554600160a01b900460ff16156105d55760405163d93c066560e01b815260040160405180910390fd5b6001600160a01b0383166110cf5780600260008282546110c491906114c0565b909155506111419050565b6001600160a01b038316600090815260208190526040902054818110156111225760405163391434e360e21b81526001600160a01b03851660048201526024810182905260448101839052606401610634565b6001600160a01b03841660009081526020819052604090209082900390555b6001600160a01b03821661115d5760028054829003905561117c565b6001600160a01b03821660009081526020819052604090208054820190555b816001600160a01b0316836001600160a01b03167fddf252ad1be2c89b69c2b068fc378daa952ba7f163c4a11628f55a4df523b3ef836040516111c191815260200190565b60405180910390a3505050565b6000815180845260005b818110156111f4576020818501810151868301820152016111d8565b506000602082860101526020601f19601f83011685010191505092915050565b60208152600061059560208301846111ce565b60006020828403121561123957600080fd5b5035919050565b80356001600160a01b038116811461125757600080fd5b919050565b6000806040838503121561126f57600080fd5b61127883611240565b946020939093013593505050565b60008060006060848603121561129b57600080fd5b6112a484611240565b92506112b260208501611240565b9150604084013590509250925092565b6000602082840312156112d457600080fd5b61059582611240565b6000806000606084860312156112f257600080fd5b6112fb84611240565b95602085013595506040909401359392505050565b634e487b7160e01b600052604160045260246000fd5b60008060006060848603121561133b57600080fd5b61134484611240565b925060208401359150604084013567ffffffffffffffff8082111561136857600080fd5b818601915086601f83011261137c57600080fd5b81358181111561138e5761138e611310565b604051601f8201601f19908116603f011681019083821181831017156113b6576113b6611310565b816040528281528960208487010111156113cf57600080fd5b8260208601602083013760006020848301015280955050505050509250925092565b6000806040838503121561140457600080fd5b61140d83611240565b915061141b60208401611240565b90509250929050565b600181811c9082168061143857607f821691505b60208210810361145857634e487b7160e01b600052602260045260246000fd5b50919050565b634e487b7160e01b600052601160045260246000fd5b80820281158282048414176105585761055861145e565b6000826114a857634e487b7160e01b600052601260045260246000fd5b500490565b818103818111156105585761055861145e565b808201808211156105585761055861145e565b8281526040602082015260006114ec60408301846111ce565b94935050505056fea2646970667358221220d513206f518111c5c109caba827aa259678036ca3fa3594dc39c91c440066a0a64736f6c63430008140033",
  "linkReferences": {},
  "deployedLinkReferences": {}
}