{
  "_format": "hh-sol-artifact-1",
  "contractName": "CarbonCredits",
  "sourceName": "contracts/CarbonCredits.sol",
  "abi": [
    {
      "inputs": [],
      "stateMutability": "nonpayable",
      "type": "constructor"
    },
    {
      "inputs": [
        {
          "internalType": "address",
          "name": "spender",
          "type": "address"
        },
        {
          "internalType": "uint256",
          "name": "allowance",
          "type": "uint256"
        },
        {
          "internalType": "uint256",
          "name": "needed",
          "type": "uint256"
        }
      ],
      "name": "ERC20InsufficientAllowance",
      "type": "error"
    },
    {
      "inputs": [
        {
          "internalType": "address",
          "name": "sender",
          "type": "address"
        },
        {
          "internalType": "uint256",
          "name": "balance",
          "type": "uint256"
        },
        {
          "internalType": "uint256",
          "name": "needed",
          "type": "uint256"
        }
      ],
      "name": "ERC20InsufficientBalance",
      "type": "error"
    },
    {
      "inputs": [
        {
          "internalType": "address",
          "name": "approver",
          "type": "address"
        }
      ],
      "name": "ERC20InvalidApprover",
      "type": "error"
    },
    {
      "inputs": [
        {
          "internalType": "address",
          "name": "receiver",
          "type": "address"
        }
      ],
      "name": "ERC20InvalidReceiver",
      "type": "error"
    },
    {
      "inputs": [
        {
          "internalType": "address",
          "name": "sender",
          "type": "address"
        }
      ],
      "name": "ERC20InvalidSender",
      "type": "error"
    },
    {
      "inputs": [
        {
          "internalType": "address",
          "name": "spender",
          "type": "address"
        }
      ],
      "name": "ERC20InvalidSpender",
      "type": "error"
    },
    {
      "inputs": [],
      "name": "EnforcedPause",
      "type": "error"
    },
    {
      "inputs": [],
      "name": "ExpectedPause",
      "type": "error"
    },
    {
      "inputs": [
        {
          "internalType": "address",
          "name": "owner",
          "type": "address"
        }
      ],
      "name": "OwnableInvalidOwner",
      "type": "error"
    },
    {
      "inputs": [
        {
          "internalType": "address",
          "name": "account",
          "type": "address"
        }
      ],
      "name": "OwnableUnauthorizedAccount",
      "type": "error"
    },
    {
      "inputs": [],
      "name": "ReentrancyGuardReentrantCall",
      "type": "error"
    },
    {
      "anonymous": false,
      "inputs": [
        {
          "indexed": true,
          "internalType": "address",
          "name": "owner",
          "type": "address"
        },
        {
          "indexed": true,
          "internalType": "address",
          "name": "spender",
          "type": "address"
        },
        {
          "indexed": false,
          "internalType": "uint256",
          "name": "value",
          "type": "uint256"
        }
      ],
      "name": "Approval",
      "type": "event"
    },
    {
      "anonymous": false,
      "inputs": [
        {
          "indexed": true,
          "internalType": "address",
          "name": "user",
          "type": "address"
        },
        {
          "indexed": false,
          "internalType": "uint256",
          "name": "amount",
          "type": "uint256"
        },
        {
          "indexed": false,
          "internalType": "uint256",
          "name": "energyAmount",
          "type": "uint256"
        },
        {
          "indexed": false,
          "internalType": "string",
          "name": "energyType",
          "type": "string"
        }
      ],
      "name": "CarbonCreditsEarned",
      "type": "event"
    },
    {
      "anonymous": false,
      "inputs": [
        {
          "indexed": true,
          "internalType": "address",
          "name": "user",
          "type": "address"
        },
        {
          "indexed": false,
          "internalType": "uint256",
          "name": "amount",
          "type": "uint256"
        },
        {
          "indexed": false,
          "internalType": "string",
          "name": "reason",
          "type": "string"
        }
      ],
      "name": "CarbonCreditsRetired",
      "type": "event"
    },
    {
      "anonymous": false,
      "inputs": [
        {
          "indexed": true,
          "internalType": "address",
          "name": "from",
          "type": "address"
        },
        {
          "indexed": true,
          "internalType": "address",
          "name": "to",
          "type": "address"
        },
        {
          "indexed": false,
          "internalType": "uint256",
          "name": "amount",
          "type": "uint256"
        }
      ],
      "name": "CarbonCreditsTransferred",
      "type": "event"
    },
    {
      "anonymous": false,
      "inputs": [
        {
          "indexed": true,
          "internalType": "address",
          "name": "previousOwner",
          "type": "address"
        },
        {
          "indexed": true,
          "internalType": "address",
          "name": "newOwner",
          "type": "address"
        }
      ],
      "name": "OwnershipTransferred",
      "type": "event"
    },
    {
      "anonymous": false,
      "inputs": [
        {
          "indexed": false,
          "internalType": "address",
          "name": "account",
          "type": "address"
        }
      ],
      "name": "Paused",
      "type": "event"
    },
    {
      "anonymous": false,
      "inputs": [
        {
          "indexed": true,
          "internalType": "address",
          "name": "from",
          "type": "address"
        },
        {
          "indexed": true,
          "internalType": "address",
          "name": "to",
          "type": "address"
        },
        {
          "indexed": false,
          "internalType": "uint256",
          "name": "value",
          "type": "uint256"
        }
      ],
      "name": "Transfer",
      "type": "event"
    },
    {
      "anonymous": false,
      "inputs": [
        {
          "indexed": false,
          "internalType": "address",
          "name": "account",
          "type": "address"
        }
      ],
      "name": "Unpaused",
      "type": "event"
    },
    {
      "inputs": [],
      "name": "INITIAL_SUPPLY",
      "outputs": [
        {
          "internalType": "uint256",
          "name": "",
          "type": "uint256"
        }
      ],
      "stateMutability": "view",
      "type": "function"
    },
    {
      "inputs": [],
      "name": "MAX_SUPPLY",
      "outputs": [
        {
          "internalType": "uint256",
          "name": "",
          "type": "uint256"
        }
      ],
      "stateMutability": "view",
      "type": "function"
    },
    {
      "inputs": [
        {
          "internalType": "address",
          "name": "_issuer",
          "type": "address"
        }
      ],
      "name": "addIssuer",
      "outputs": [],
      "stateMutability": "nonpayable",
      "type": "function"
    },
    {
      "inputs": [
        {
          "internalType": "address",
          "name": "owner",
          "type": "address"
        },
        {
          "internalType": "address",
          "name": "spender",
          "type": "address"
        }
      ],
      "name": "allowance",
      "outputs": [
        {
          "internalType": "uint256",
          "name": "",
          "type": "uint256"
        }
      ],
      "stateMutability": "view",
      "type": "function"
    },
    {
      "inputs": [
        {
          "internalType": "address",
          "name": "spender",
          "type": "address"
        },
        {
          "internalType": "uint256",
          "name": "value",
          "type": "uint256"
        }
      ],
      "name": "approve",
      "outputs": [
        {
          "internalType": "bool",
          "name": "",
          "type": "bool"
        }
      ],
      "stateMutability": "nonpayable",
      "type": "function"
    },
    {
      "inputs": [
        {
          "internalType": "address",
          "name": "",
          "type": "address"
        }
      ],
      "name": "authorizedIssuers",
      "outputs": [
        {
          "internalType": "bool",
          "name": "",
          "type": "bool"
        }
      ],
      "stateMutability": "view",
      "type": "function"
    },
    {
      "inputs": [
        {
          "internalType": "address",
          "name": "account",
          "type": "address"
        }
      ],
      "name": "balanceOf",
      "outputs": [
        {
          "internalType": "uint256",
          "name": "",
          "type": "uint256"
        }
      ],
      "stateMutability": "view",
      "type": "function"
    },
    {
      "inputs": [
        {
          "internalType": "uint256",
          "name": "value",
          "type": "uint256"
        }
      ],
      "name": "burn",
      "outputs": [],
      "stateMutability": "nonpayable",
      "type": "function"
    },
    {
      "inputs": [
        {
          "internalType": "address",
          "name": "account",
          "type": "address"
        },
        {
          "internalType": "uint256",
          "name": "value",
          "type": "uint256"
        }
      ],
      "name": "burnFrom",
      "outputs": [],
      "stateMutability": "nonpayable",
      "type": "function"
    },
    {
      "inputs": [
        {
          "internalType": "uint256",
          "name": "_energyAmount",
          "type": "uint256"
        },
        {
          "internalType": "string",
          "name": "_energyType",
          "type": "string"
        }
      ],
      "name": "calculateCarbonCredits",
      "outputs": [
        {
          "internalType": "uint256",
          "name": "",
          "type": "uint256"
        }
      ],
      "stateMutability": "view",
      "type": "function"
    },
    {
      "inputs": [
        {
          "internalType": "string",
          "name": "",
          "type": "string"
        }
      ],
      "name": "carbonCreditRates",
      "outputs": [
        {
          "internalType": "uint256",
          "name": "",
          "type": "uint256"
        }
      ],
      "stateMutability": "view",
      "type": "function"
    },
    {
      "inputs": [
        {
          "internalType": "address",
          "name": "",
          "type": "address"
        },
        {
          "internalType": "uint256",
          "name": "",
          "type": "uint256"
        }
      ],
      "name": "carbonHistory",
      "outputs": [
        {
          "internalType": "uint256",
          "name": "amount",
          "type": "uint256"
        },
        {
          "internalType": "uint256",
          "name": "timestamp",
          "type": "uint256"
        },
        {
          "internalType": "string",
          "name": "energyType",
          "type": "string"
        },
        {
          "internalType": "uint256",
          "name": "energyAmount",
          "type": "uint256"
        },
        {
          "internalType": "bool",
          "name": "retired",
          "type": "bool"
        }
      ],
      "stateMutability": "view",
      "type": "function"
    },
    {
      "inputs": [],
      "name": "decimals",
      "outputs": [
        {
          "internalType": "uint8",
          "name": "",
          "type": "uint8"
        }
      ],
      "stateMutability": "view",
      "type": "function"
    },
    {
      "inputs": [
        {
          "internalType": "string",
          "name": "_energyType",
          "type": "string"
        }
      ],
      "name": "getCarbonCreditRate",
      "outputs": [
        {
          "internalType": "uint256",
          "name": "",
          "type": "uint256"
        }
      ],
      "stateMutability": "view",
      "type": "function"
    },
    {
      "inputs": [
        {
          "internalType": "address",
          "name": "_user",
          "type": "address"
        }
      ],
      "name": "getCarbonHistory",
      "outputs": [
        {
          "components": [
            {
              "internalType": "uint256",
              "name": "amount",
              "type": "uint256"
            },
            {
              "internalType": "uint256",
              "name": "timestamp",
              "type": "uint256"
            },
            {
              "internalType": "string",
              "name": "energyType",
              "type": "string"
            },
            {
              "internalType": "uint256",
              "name": "energyAmount",
              "type": "uint256"
            },
            {
              "internalType": "bool",
              "name": "retired",
              "type": "bool"
            }
          ],
          "internalType": "struct CarbonCredits.CarbonRecord[]",
          "name": "",
          "type": "tuple[]"
        }
      ],
      "stateMutability": "view",
      "type": "function"
    },
    {
      "inputs": [
        {
          "internalType": "address",
          "name": "_user",
          "type": "address"
        }
      ],
      "name": "getCarbonStats",
      "outputs": [
        {
          "internalType": "uint256",
          "name": "totalEarned",
          "type": "uint256"
        },
        {
          "internalType": "uint256",
          "name": "totalRetired",
          "type": "uint256"
        },
        {
          "internalType": "uint256",
          "name": "currentBalance",
          "type": "uint256"
        },
        {
          "internalType": "uint256",
          "name": "recordCount",
          "type": "uint256"
        }
      ],
      "stateMutability": "view",
      "type": "function"
    },
    {
      "inputs": [],
      "name": "getEnvironmentalImpact",
      "outputs": [
        {
          "internalType": "uint256",
          "name": "totalCreditsIssued",
          "type": "uint256"
        },
        {
          "internalType": "uint256",
          "name": "totalCreditsRetired",
          "type": "uint256"
        },
        {
          "internalType": "uint256",
          "name": "netEnvironmentalImpact",
          "type": "uint256"
        }
      ],
      "stateMutability": "view",
      "type": "function"
    },
    {
      "inputs": [],
      "name": "getTotalCarbonCredits",
      "outputs": [
        {
          "internalType": "uint256",
          "name": "",
          "type": "uint256"
        }
      ],
      "stateMutability": "view",
      "type": "function"
    },
    {
      "inputs": [],
      "name": "getTotalRetired",
      "outputs": [
        {
          "internalType": "uint256",
          "name": "",
          "type": "uint256"
        }
      ],
      "stateMutability": "view",
      "type": "function"
    },
    {
      "inputs": [
        {
          "internalType": "address",
          "name": "_to",
          "type": "address"
        },
        {
          "internalType": "uint256",
          "name": "_energyAmount",
          "type": "uint256"
        },
        {
          "internalType": "string",
          "name": "_energyType",
          "type": "string"
        }
      ],
      "name": "issueCarbonCredits",
      "outputs": [],
      "stateMutability": "nonpayable",
      "type": "function"
    },
    {
      "inputs": [],
      "name": "name",
      "outputs": [
        {
          "internalType": "string",
          "name": "",
          "type": "string"
        }
      ],
      "stateMutability": "view",
      "type": "function"
    },
    {
      "inputs": [],
      "name": "owner",
      "outputs": [
        {
          "internalType": "address",
          "name": "",
          "type": "address"
        }
      ],
      "stateMutability": "view",
      "type": "function"
    },
    {
      "inputs": [],
      "name": "pause",
      "outputs": [],
      "stateMutability": "nonpayable",
      "type": "function"
    },
    {
      "inputs": [],
      "name": "paused",
      "outputs": [
        {
          "internalType": "bool",
          "name": "",
          "type": "bool"
        }
      ],
      "stateMutability": "view",
      "type": "function"
    },
    {
      "inputs": [
        {
          "internalType": "address",
          "name": "_issuer",
          "type": "address"
        }
      ],
      "name": "removeIssuer",
      "outputs": [],
      "stateMutability": "nonpayable",
      "type": "function"
    },
    {
      "inputs": [],
      "name": "renounceOwnership",
      "outputs": [],
      "stateMutability": "nonpayable",
      "type": "function"
    },
    {
      "inputs": [
        {
          "internalType": "uint256",
          "name": "_amount",
          "type": "uint256"
        },
        {
          "internalType": "string",
          "name": "_reason",
          "type": "string"
        }
      ],
      "name": "retireCarbonCredits",
      "outputs": [],
      "stateMutability": "nonpayable",
      "type": "function"
    },
    {
      "inputs": [
        {
          "internalType": "string",
          "name": "_energyType",
          "type": "string"
        },
        {
          "internalType": "uint256",
          "name": "_rate",
          "type": "uint256"
        }
      ],
      "name": "setCarbonCreditRate",
      "outputs": [],
      "stateMutability": "nonpayable",
      "type": "function"
    },
    {
      "inputs": [],
      "name": "symbol",
      "outputs": [
        {
          "internalType": "string",
          "name": "",
          "type": "string"
        }
      ],
      "stateMutability": "view",
      "type": "function"
    },
    {
      "inputs": [
        {
          "internalType": "address",
          "name": "",
          "type": "address"
        }
      ],
      "name": "totalCarbonEarned",
      "outputs": [
        {
          "internalType": "uint256",
          "name": "",
          "type": "uint256"
        }
      ],
      "stateMutability": "view",
      "type": "function"
    },
    {
      "inputs": [
        {
          "internalType": "address",
          "name": "",
          "type": "address"
        }
      ],
      "name": "totalCarbonRetired",
      "outputs": [
        {
          "internalType": "uint256",
          "name": "",
          "type": "uint256"
        }
      ],
      "stateMutability": "view",
      "type": "function"
    },
    {
      "inputs": [],
      "name": "totalSupply",
      "outputs": [
        {
          "internalType": "uint256",
          "name": "",
          "type": "uint256"
        }
      ],
      "stateMutability": "view",
      "type": "function"
    },
    {
      "inputs": [
        {
          "internalType": "address",
          "name": "_to",
          "type": "address"
        },
        {
          "internalType": "uint256",
          "name": "_amount",
          "type": "uint256"
        }
      ],
      "name": "transfer",
      "outputs": [
        {
          "internalType": "bool",
          "name": "",
          "type": "bool"
        }
      ],
      "stateMutability": "nonpayable",
      "type": "function"
    },
    {
      "inputs": [
        {
          "internalType": "address",
          "name": "_from",
          "type": "address"
        },
        {
          "internalType": "address",
          "name": "_to",
          "type": "address"
        },
        {
          "internalType": "uint256",
          "name": "_amount",
          "type": "uint256"
        }
      ],
      "name": "transferFrom",
      "outputs": [
        {
          "internalType": "bool",
          "name": "",
          "type": "bool"
        }
      ],
      "stateMutability": "nonpayable",
      "type": "function"
    },
    {
      "inputs": [
        {
          "internalType": "address",
          "name": "newOwner",
          "type": "address"
        }
      ],
      "name": "transferOwnership",
      "outputs": [],
      "stateMutability": "nonpayable",
      "type": "function"
    },
    {
      "inputs": [],
      "name": "unpause",
      "outputs": [],
      "stateMutability": "nonpayable",
      "type": "function"
    }
  ],
  "bytecode": "0x60806040523480156200001157600080fd5b50336040518060400160405280601981526020017f506f776572436861696e20436172626f6e20437265646974730000000000000081525060405180604001604052806002815260200161434360f01b81525081600390816200007591906200027d565b5060046200008482826200027d565b5050506001600160a01b038116620000b657604051631e4fbdf760e01b81526000600482015260240160405180910390fd5b620000c18162000186565b5060016006819055604080516439b7b630b960d91b8152600760058083018290528351928390036025908101842066b1a2bc2ec500009055631dda5b9960e21b8452600484018390528451938490036024018420669fdf42f6e48000905564687964726f60d81b8452908301829052835192839003018220668e1bc9bf04000090556673746f7261676560c81b8252818101528151908190036027019020666a94d74f4300009055336000908152600b60205220805460ff1916909117905562000349565b600580546001600160a01b038381166001600160a01b0319831681179093556040519116919082907f8be0079c531659141344cd1fd0a4f28419497f9722a3daafe3b4186f6b6457e090600090a35050565b634e487b7160e01b600052604160045260246000fd5b600181811c908216806200020357607f821691505b6020821081036200022457634e487b7160e01b600052602260045260246000fd5b50919050565b601f8211156200027857600081815260208120601f850160051c81016020861015620002535750805b601f850160051c820191505b8181101562000274578281556001016200025f565b5050505b505050565b81516001600160401b03811115620002995762000299620001d8565b620002b181620002aa8454620001ee565b846200022a565b602080601f831160018114620002e95760008415620002d05750858301515b600019600386901b1c1916600185901b17855562000274565b600085815260208120601f198616915b828110156200031a57888601518255948401946001909101908401620002f9565b5085821015620003395787850151600019600388901b60f8161c191681555b5050505050600190811b01905550565b611b3a80620003596000396000f3fe608060405234801561001057600080fd5b506004361061021c5760003560e01c8063715018a61161012557806395d89b41116100ad578063ba01aac31161007c578063ba01aac3146104b4578063be5484a01461051d578063dd62ed3e14610530578063f2fde38b14610569578063f731fa0f1461057c57600080fd5b806395d89b4114610459578063a1291a6214610461578063a7f583c914610481578063a9059cbb146104a157600080fd5b80637ccd217c116100f45780637ccd217c146103fb578063811b6baf1461041b5780638456cb59146104235780638da5cb5b1461042b5780639247ddbc1461044657600080fd5b8063715018a6146103c657806375a342c1146103ce57806378c77099146103d557806379cc6790146103e857600080fd5b8063313ce567116101a857806346207131116101775780634620713114610341578063465f12171461036557806347bc7093146103785780635c975abb1461038b57806370a082311461039d57600080fd5b8063313ce5671461030557806332cb6b0c146103145780633f4ba83a1461032657806342966c681461032e57600080fd5b80631a4bec81116101ef5780631a4bec811461028957806320694db0146102b457806323b872dd146102c75780632ecdf71f146102da5780632ff2e9dc146102fd57600080fd5b806306fdde0314610221578063095ea7b31461023f57806314c2274a1461026257806318160ddd14610277575b600080fd5b61022961059f565b6040516102369190611564565b60405180910390f35b61025261024d366004611593565b610631565b6040519015158152602001610236565b610275610270366004611660565b61064b565b005b6002545b604051908152602001610236565b61027b6102973660046116a7565b805160208183018101805160078252928201919093012091525481565b6102756102c23660046116dc565b610776565b6102526102d53660046116f7565b6107a2565b6102e261080e565b60408051938452602084019290925290820152606001610236565b61027b600081565b60405160128152602001610236565b61027b6a295be96e6406697200000081565b61027561083e565b61027561033c366004611733565b610850565b61035461034f366004611593565b61085d565b60405161023695949392919061174c565b610275610373366004611784565b61093c565b6102756103863660046116dc565b610c47565b600554600160a01b900460ff16610252565b61027b6103ab3660046116dc565b6001600160a01b031660009081526020819052604090205490565b610275610c70565b600061027b565b6102756103e33660046117db565b610c82565b6102756103f6366004611593565b610cf7565b61040e6104093660046116dc565b610d0c565b6040516102369190611820565b61027b610e46565b610275610e56565b6005546040516001600160a01b039091168152602001610236565b61027b610454366004611660565b610e66565b610229610f15565b61027b61046f3660046116dc565b60096020526000908152604090205481565b61027b61048f3660046116dc565b600a6020526000908152604090205481565b6102526104af366004611593565b610f24565b6104fd6104c23660046116dc565b6001600160a01b0316600090815260096020908152604080832054600a83528184205484845282852054600890945291909320549293909290565b604080519485526020850193909352918301526060820152608001610236565b61027b61052b3660046116a7565b610f80565b61027b61053e3660046118b7565b6001600160a01b03918216600090815260016020908152604080832093909416825291909152205490565b6102756105773660046116dc565b610fa8565b61025261058a3660046116dc565b600b6020526000908152604090205460ff1681565b6060600380546105ae906118ea565b80601f01602080910402602001604051908101604052809291908181526020018280546105da906118ea565b80156106275780601f106105fc57610100808354040283529160200191610627565b820191906000526020600020905b81548152906001019060200180831161060a57829003601f168201915b5050505050905090565b60003361063f818585610fe3565b60019150505b92915050565b610653610ff0565b600082116106a85760405162461bcd60e51b815260206004820152601760248201527f416d6f756e74206d75737420626520706f73697469766500000000000000000060448201526064015b60405180910390fd5b336000908152602081905260409020548211156106fe5760405162461bcd60e51b8152602060048201526014602482015273496e73756666696369656e74206372656469747360601b604482015260640161069f565b610708338361101a565b336000908152600a60205260408120805484929061072790849061193a565b909155505060405133907f1700877da3046d2ed6e0af8ae86d75b88cb8676aa48f99ebaec81f54d537aa3490610760908590859061194d565b60405180910390a26107726001600655565b5050565b61077e611050565b6001600160a01b03166000908152600b60205260409020805460ff19166001179055565b6000806107b085858561107d565b9050801561080657836001600160a01b0316856001600160a01b03167f4bddcd2adcae63181f5513ae0e14ae39dfd81f5d7f840faca9b8ce46caf7f77d856040516107fd91815260200190565b60405180910390a35b949350505050565b600080808080600254610821919061193a565b9050600081816108318183611966565b9450945094505050909192565b610846611050565b61084e6110a1565b565b61085a338261101a565b50565b6008602052816000526040600020818154811061087957600080fd5b9060005260206000209060050201600091509150508060000154908060010154908060020180546108a9906118ea565b80601f01602080910402602001604051908101604052809291908181526020018280546108d5906118ea565b80156109225780601f106108f757610100808354040283529160200191610922565b820191906000526020600020905b81548152906001019060200180831161090557829003601f168201915b50505050600383015460049093015491929160ff16905085565b336000908152600b602052604090205460ff168061096457506005546001600160a01b031633145b6109b05760405162461bcd60e51b815260206004820152601f60248201527f4e6f7420617574686f72697a656420746f206973737565206372656469747300604482015260640161069f565b6109b8610ff0565b60008211610a085760405162461bcd60e51b815260206004820152601e60248201527f456e6572677920616d6f756e74206d75737420626520706f7369746976650000604482015260640161069f565b6000600782604051610a1a9190611979565b90815260200160405180910390205411610a725760405162461bcd60e51b8152602060048201526019602482015278115b995c99de481d1e5c19481b9bdd081cdd5c1c1bdc9d1959603a1b604482015260640161069f565b6000670de0b6b3a7640000600783604051610a8d9190611979565b90815260200160405180910390205484610aa79190611995565b610ab191906119ac565b90506a295be96e6406697200000081610ac960025490565b610ad3919061193a565b1115610b215760405162461bcd60e51b815260206004820152601760248201527f576f756c6420657863656564206d617820737570706c79000000000000000000604482015260640161069f565b610b2b84826110f6565b6001600160a01b0384166000908152600860209081526040808320815160a08101835285815242818501908152928101878152606082018990526080820186905282546001818101855593875294909520815160059095020193845591519083015591516002820190610b9e9082611a1c565b50606082015160038201556080909101516004909101805460ff19169115159190911790556001600160a01b03841660009081526009602052604081208054839290610beb90849061193a565b92505081905550836001600160a01b03167f76f09b24d86e97f10b6d5bb81678aee6d61e1d75379bb85214d70fc4004601d3828585604051610c2f93929190611adc565b60405180910390a250610c426001600655565b505050565b610c4f611050565b6001600160a01b03166000908152600b60205260409020805460ff19169055565b610c78611050565b61084e600061112c565b610c8a611050565b60008111610cd25760405162461bcd60e51b815260206004820152601560248201527452617465206d75737420626520706f73697469766560581b604482015260640161069f565b80600783604051610ce39190611979565b908152604051908190036020019020555050565b610d0282338361117e565b610772828261101a565b6001600160a01b0381166000908152600860209081526040808320805482518185028101850190935280835260609492939192909184015b82821015610e3b57838290600052602060002090600502016040518060a00160405290816000820154815260200160018201548152602001600282018054610d8b906118ea565b80601f0160208091040260200160405190810160405280929190818152602001828054610db7906118ea565b8015610e045780601f10610dd957610100808354040283529160200191610e04565b820191906000526020600020905b815481529060010190602001808311610de757829003601f168201915b5050509183525050600382015460208083019190915260049092015460ff1615156040909101529082526001929092019101610d44565b505050509050919050565b6000610e5160025490565b905090565b610e5e611050565b61084e6111fd565b600080600783604051610e799190611979565b90815260200160405180910390205411610ed15760405162461bcd60e51b8152602060048201526019602482015278115b995c99de481d1e5c19481b9bdd081cdd5c1c1bdc9d1959603a1b604482015260640161069f565b670de0b6b3a7640000600783604051610eea9190611979565b90815260200160405180910390205484610f049190611995565b610f0e91906119ac565b9392505050565b6060600480546105ae906118ea565b600080610f318484611240565b90508015610f0e576040518381526001600160a01b0385169033907f4bddcd2adcae63181f5513ae0e14ae39dfd81f5d7f840faca9b8ce46caf7f77d9060200160405180910390a39392505050565b6000600782604051610f929190611979565b9081526020016040518091039020549050919050565b610fb0611050565b6001600160a01b038116610fda57604051631e4fbdf760e01b81526000600482015260240161069f565b61085a8161112c565b610c42838383600161124e565b60026006540361101357604051633ee5aeb560e01b815260040160405180910390fd5b6002600655565b6001600160a01b03821661104457604051634b637e8f60e11b81526000600482015260240161069f565b61077282600083611323565b6005546001600160a01b0316331461084e5760405163118cdaa760e01b815233600482015260240161069f565b60003361108b85828561117e565b611096858585611336565b506001949350505050565b6110a9611395565b6005805460ff60a01b191690557f5db9ee0a495bf2e6ff9c91a7834c1ba4fdd244a5e8aa4e537bd38aeae4b073aa335b6040516001600160a01b03909116815260200160405180910390a1565b6001600160a01b0382166111205760405163ec442f0560e01b81526000600482015260240161069f565b61077260008383611323565b600580546001600160a01b038381166001600160a01b0319831681179093556040519116919082907f8be0079c531659141344cd1fd0a4f28419497f9722a3daafe3b4186f6b6457e090600090a35050565b6001600160a01b038381166000908152600160209081526040808320938616835292905220546000198110156111f757818110156111e857604051637dc7a0d960e11b81526001600160a01b0384166004820152602481018290526044810183905260640161069f565b6111f78484848403600061124e565b50505050565b6112056113bf565b6005805460ff60a01b1916600160a01b1790557f62e78cea01bee320cd4e420270b5ea74000d11b0c9f74754ebdbfc544b05a2586110d93390565b60003361063f818585611336565b6001600160a01b0384166112785760405163e602df0560e01b81526000600482015260240161069f565b6001600160a01b0383166112a257604051634a1406b160e11b81526000600482015260240161069f565b6001600160a01b03808516600090815260016020908152604080832093871683529290522082905580156111f757826001600160a01b0316846001600160a01b03167f8c5be1e5ebec7d5bd14f71427d1e84f3dd0314c0f7b2291e5b200ac8c7c3b9258460405161131591815260200190565b60405180910390a350505050565b61132b6113bf565b610c428383836113ea565b6001600160a01b03831661136057604051634b637e8f60e11b81526000600482015260240161069f565b6001600160a01b03821661138a5760405163ec442f0560e01b81526000600482015260240161069f565b610c42838383611323565b600554600160a01b900460ff1661084e57604051638dfc202b60e01b815260040160405180910390fd5b600554600160a01b900460ff161561084e5760405163d93c066560e01b815260040160405180910390fd5b6001600160a01b03831661141557806002600082825461140a919061193a565b909155506114879050565b6001600160a01b038316600090815260208190526040902054818110156114685760405163391434e360e21b81526001600160a01b0385166004820152602481018290526044810183905260640161069f565b6001600160a01b03841660009081526020819052604090209082900390555b6001600160a01b0382166114a3576002805482900390556114c2565b6001600160a01b03821660009081526020819052604090208054820190555b816001600160a01b0316836001600160a01b03167fddf252ad1be2c89b69c2b068fc378daa952ba7f163c4a11628f55a4df523b3ef8360405161150791815260200190565b60405180910390a3505050565b60005b8381101561152f578181015183820152602001611517565b50506000910152565b60008151808452611550816020860160208601611514565b601f01601f19169290920160200192915050565b602081526000610f0e6020830184611538565b80356001600160a01b038116811461158e57600080fd5b919050565b600080604083850312156115a657600080fd5b6115af83611577565b946020939093013593505050565b634e487b7160e01b600052604160045260246000fd5b600082601f8301126115e457600080fd5b813567ffffffffffffffff808211156115ff576115ff6115bd565b604051601f8301601f19908116603f01168101908282118183101715611627576116276115bd565b8160405283815286602085880101111561164057600080fd5b836020870160208301376000602085830101528094505050505092915050565b6000806040838503121561167357600080fd5b82359150602083013567ffffffffffffffff81111561169157600080fd5b61169d858286016115d3565b9150509250929050565b6000602082840312156116b957600080fd5b813567ffffffffffffffff8111156116d057600080fd5b610806848285016115d3565b6000602082840312156116ee57600080fd5b610f0e82611577565b60008060006060848603121561170c57600080fd5b61171584611577565b925061172360208501611577565b9150604084013590509250925092565b60006020828403121561174557600080fd5b5035919050565b85815284602082015260a06040820152600061176b60a0830186611538565b6060830194909452509015156080909101529392505050565b60008060006060848603121561179957600080fd5b6117a284611577565b925060208401359150604084013567ffffffffffffffff8111156117c557600080fd5b6117d1868287016115d3565b9150509250925092565b600080604083850312156117ee57600080fd5b823567ffffffffffffffff81111561180557600080fd5b611811858286016115d3565b95602094909401359450505050565b60006020808301818452808551808352604092508286019150828160051b87010184880160005b838110156118a957603f19898403018552815160a081518552888201518986015287820151818987015261187d82870182611538565b606084810151908801526080938401511515939096019290925250509386019390860190600101611847565b509098975050505050505050565b600080604083850312156118ca57600080fd5b6118d383611577565b91506118e160208401611577565b90509250929050565b600181811c908216806118fe57607f821691505b60208210810361191e57634e487b7160e01b600052602260045260246000fd5b50919050565b634e487b7160e01b600052601160045260246000fd5b8082018082111561064557610645611924565b8281526040602082015260006108066040830184611538565b8181038181111561064557610645611924565b6000825161198b818460208701611514565b9190910192915050565b808202811582820484141761064557610645611924565b6000826119c957634e487b7160e01b600052601260045260246000fd5b500490565b601f821115610c4257600081815260208120601f850160051c810160208610156119f55750805b601f850160051c820191505b81811015611a1457828155600101611a01565b505050505050565b815167ffffffffffffffff811115611a3657611a366115bd565b611a4a81611a4484546118ea565b846119ce565b602080601f831160018114611a7f5760008415611a675750858301515b600019600386901b1c1916600185901b178555611a14565b600085815260208120601f198616915b82811015611aae57888601518255948401946001909101908401611a8f565b5085821015611acc5787850151600019600388901b60f8161c191681555b5050505050600190811b01905550565b838152826020820152606060408201526000611afb6060830184611538565b9594505050505056fea2646970667358221220c513630908955ce2c52d1f1c822a53d6502e8dfc9ec9641af6048dcc2981a23564736f6c63430008140033",
  "linkReferences": {},
  "deployedLinkReferences": {}
}