{
  "_format": "hh-sol-artifact-1",
  "contractName": "GovernanceDAO",
  "sourceName": "contracts/GovernanceDAO.sol",
  "abi": [
    {
      "inputs": [],
      "stateMutability": "nonpayable",
      "type": "constructor"
    },
    {
      "inputs": [
        {
          "internalType": "address",
          "name": "spender",
          "type": "address"
        },
        {
          "internalType": "uint256",
          "name": "allowance",
          "type": "uint256"
        },
        {
          "internalType": "uint256",
          "name": "needed",
          "type": "uint256"
        }
      ],
      "name": "ERC20InsufficientAllowance",
      "type": "error"
    },
    {
      "inputs": [
        {
          "internalType": "address",
          "name": "sender",
          "type": "address"
        },
        {
          "internalType": "uint256",
          "name": "balance",
          "type": "uint256"
        },
        {
          "internalType": "uint256",
          "name": "needed",
          "type": "uint256"
        }
      ],
      "name": "ERC20InsufficientBalance",
      "type": "error"
    },
    {
      "inputs": [
        {
          "internalType": "address",
          "name": "approver",
          "type": "address"
        }
      ],
      "name": "ERC20InvalidApprover",
      "type": "error"
    },
    {
      "inputs": [
        {
          "internalType": "address",
          "name": "receiver",
          "type": "address"
        }
      ],
      "name": "ERC20InvalidReceiver",
      "type": "error"
    },
    {
      "inputs": [
        {
          "internalType": "address",
          "name": "sender",
          "type": "address"
        }
      ],
      "name": "ERC20InvalidSender",
      "type": "error"
    },
    {
      "inputs": [
        {
          "internalType": "address",
          "name": "spender",
          "type": "address"
        }
      ],
      "name": "ERC20InvalidSpender",
      "type": "error"
    },
    {
      "inputs": [],
      "name": "EnforcedPause",
      "type": "error"
    },
    {
      "inputs": [],
      "name": "ExpectedPause",
      "type": "error"
    },
    {
      "inputs": [
        {
          "internalType": "address",
          "name": "owner",
          "type": "address"
        }
      ],
      "name": "OwnableInvalidOwner",
      "type": "error"
    },
    {
      "inputs": [
        {
          "internalType": "address",
          "name": "account",
          "type": "address"
        }
      ],
      "name": "OwnableUnauthorizedAccount",
      "type": "error"
    },
    {
      "inputs": [],
      "name": "ReentrancyGuardReentrantCall",
      "type": "error"
    },
    {
      "anonymous": false,
      "inputs": [
        {
          "indexed": true,
          "internalType": "address",
          "name": "owner",
          "type": "address"
        },
        {
          "indexed": true,
          "internalType": "address",
          "name": "spender",
          "type": "address"
        },
        {
          "indexed": false,
          "internalType": "uint256",
          "name": "value",
          "type": "uint256"
        }
      ],
      "name": "Approval",
      "type": "event"
    },
    {
      "anonymous": false,
      "inputs": [
        {
          "indexed": true,
          "internalType": "address",
          "name": "delegator",
          "type": "address"
        },
        {
          "indexed": true,
          "internalType": "address",
          "name": "oldDelegate",
          "type": "address"
        },
        {
          "indexed": true,
          "internalType": "address",
          "name": "newDelegate",
          "type": "address"
        }
      ],
      "name": "DelegatePowerChanged",
      "type": "event"
    },
    {
      "anonymous": false,
      "inputs": [
        {
          "indexed": true,
          "internalType": "address",
          "name": "to",
          "type": "address"
        },
        {
          "indexed": false,
          "internalType": "uint256",
          "name": "amount",
          "type": "uint256"
        },
        {
          "indexed": false,
          "internalType": "string",
          "name": "reason",
          "type": "string"
        }
      ],
      "name": "GovernanceTokensIssued",
      "type": "event"
    },
    {
      "anonymous": false,
      "inputs": [
        {
          "indexed": true,
          "internalType": "address",
          "name": "previousOwner",
          "type": "address"
        },
        {
          "indexed": true,
          "internalType": "address",
          "name": "newOwner",
          "type": "address"
        }
      ],
      "name": "OwnershipTransferred",
      "type": "event"
    },
    {
      "anonymous": false,
      "inputs": [
        {
          "indexed": false,
          "internalType": "address",
          "name": "account",
          "type": "address"
        }
      ],
      "name": "Paused",
      "type": "event"
    },
    {
      "anonymous": false,
      "inputs": [
        {
          "indexed": true,
          "internalType": "uint256",
          "name": "proposalId",
          "type": "uint256"
        }
      ],
      "name": "ProposalCancelled",
      "type": "event"
    },
    {
      "anonymous": false,
      "inputs": [
        {
          "indexed": true,
          "internalType": "uint256",
          "name": "proposalId",
          "type": "uint256"
        },
        {
          "indexed": true,
          "internalType": "address",
          "name": "proposer",
          "type": "address"
        },
        {
          "indexed": false,
          "internalType": "string",
          "name": "title",
          "type": "string"
        },
        {
          "indexed": false,
          "internalType": "string",
          "name": "description",
          "type": "string"
        }
      ],
      "name": "ProposalCreated",
      "type": "event"
    },
    {
      "anonymous": false,
      "inputs": [
        {
          "indexed": true,
          "internalType": "uint256",
          "name": "proposalId",
          "type": "uint256"
        },
        {
          "indexed": false,
          "internalType": "bool",
          "name": "successful",
          "type": "bool"
        }
      ],
      "name": "ProposalExecuted",
      "type": "event"
    },
    {
      "anonymous": false,
      "inputs": [
        {
          "indexed": true,
          "internalType": "address",
          "name": "from",
          "type": "address"
        },
        {
          "indexed": true,
          "internalType": "address",
          "name": "to",
          "type": "address"
        },
        {
          "indexed": false,
          "internalType": "uint256",
          "name": "value",
          "type": "uint256"
        }
      ],
      "name": "Transfer",
      "type": "event"
    },
    {
      "anonymous": false,
      "inputs": [
        {
          "indexed": false,
          "internalType": "address",
          "name": "account",
          "type": "address"
        }
      ],
      "name": "Unpaused",
      "type": "event"
    },
    {
      "anonymous": false,
      "inputs": [
        {
          "indexed": true,
          "internalType": "uint256",
          "name": "proposalId",
          "type": "uint256"
        },
        {
          "indexed": true,
          "internalType": "address",
          "name": "voter",
          "type": "address"
        },
        {
          "indexed": false,
          "internalType": "bool",
          "name": "support",
          "type": "bool"
        },
        {
          "indexed": false,
          "internalType": "uint256",
          "name": "weight",
          "type": "uint256"
        }
      ],
      "name": "VoteCast",
      "type": "event"
    },
    {
      "inputs": [],
      "name": "INITIAL_SUPPLY",
      "outputs": [
        {
          "internalType": "uint256",
          "name": "",
          "type": "uint256"
        }
      ],
      "stateMutability": "view",
      "type": "function"
    },
    {
      "inputs": [],
      "name": "MAX_SUPPLY",
      "outputs": [
        {
          "internalType": "uint256",
          "name": "",
          "type": "uint256"
        }
      ],
      "stateMutability": "view",
      "type": "function"
    },
    {
      "inputs": [],
      "name": "PROPOSAL_THRESHOLD",
      "outputs": [
        {
          "internalType": "uint256",
          "name": "",
          "type": "uint256"
        }
      ],
      "stateMutability": "view",
      "type": "function"
    },
    {
      "inputs": [],
      "name": "QUORUM_VOTES",
      "outputs": [
        {
          "internalType": "uint256",
          "name": "",
          "type": "uint256"
        }
      ],
      "stateMutability": "view",
      "type": "function"
    },
    {
      "inputs": [],
      "name": "VOTING_DELAY",
      "outputs": [
        {
          "internalType": "uint256",
          "name": "",
          "type": "uint256"
        }
      ],
      "stateMutability": "view",
      "type": "function"
    },
    {
      "inputs": [],
      "name": "VOTING_PERIOD",
      "outputs": [
        {
          "internalType": "uint256",
          "name": "",
          "type": "uint256"
        }
      ],
      "stateMutability": "view",
      "type": "function"
    },
    {
      "inputs": [
        {
          "internalType": "address",
          "name": "_minter",
          "type": "address"
        }
      ],
      "name": "addMinter",
      "outputs": [],
      "stateMutability": "nonpayable",
      "type": "function"
    },
    {
      "inputs": [
        {
          "internalType": "address",
          "name": "owner",
          "type": "address"
        },
        {
          "internalType": "address",
          "name": "spender",
          "type": "address"
        }
      ],
      "name": "allowance",
      "outputs": [
        {
          "internalType": "uint256",
          "name": "",
          "type": "uint256"
        }
      ],
      "stateMutability": "view",
      "type": "function"
    },
    {
      "inputs": [
        {
          "internalType": "address",
          "name": "spender",
          "type": "address"
        },
        {
          "internalType": "uint256",
          "name": "value",
          "type": "uint256"
        }
      ],
      "name": "approve",
      "outputs": [
        {
          "internalType": "bool",
          "name": "",
          "type": "bool"
        }
      ],
      "stateMutability": "nonpayable",
      "type": "function"
    },
    {
      "inputs": [
        {
          "internalType": "address",
          "name": "",
          "type": "address"
        }
      ],
      "name": "authorizedMinters",
      "outputs": [
        {
          "internalType": "bool",
          "name": "",
          "type": "bool"
        }
      ],
      "stateMutability": "view",
      "type": "function"
    },
    {
      "inputs": [
        {
          "internalType": "address",
          "name": "account",
          "type": "address"
        }
      ],
      "name": "balanceOf",
      "outputs": [
        {
          "internalType": "uint256",
          "name": "",
          "type": "uint256"
        }
      ],
      "stateMutability": "view",
      "type": "function"
    },
    {
      "inputs": [
        {
          "internalType": "uint256",
          "name": "value",
          "type": "uint256"
        }
      ],
      "name": "burn",
      "outputs": [],
      "stateMutability": "nonpayable",
      "type": "function"
    },
    {
      "inputs": [
        {
          "internalType": "address",
          "name": "account",
          "type": "address"
        },
        {
          "internalType": "uint256",
          "name": "value",
          "type": "uint256"
        }
      ],
      "name": "burnFrom",
      "outputs": [],
      "stateMutability": "nonpayable",
      "type": "function"
    },
    {
      "inputs": [
        {
          "internalType": "uint256",
          "name": "_proposalId",
          "type": "uint256"
        }
      ],
      "name": "cancelProposal",
      "outputs": [],
      "stateMutability": "nonpayable",
      "type": "function"
    },
    {
      "inputs": [
        {
          "internalType": "uint256",
          "name": "_proposalId",
          "type": "uint256"
        },
        {
          "internalType": "enum GovernanceDAO.VoteType",
          "name": "_voteType",
          "type": "uint8"
        }
      ],
      "name": "castVote",
      "outputs": [],
      "stateMutability": "nonpayable",
      "type": "function"
    },
    {
      "inputs": [
        {
          "internalType": "string",
          "name": "_title",
          "type": "string"
        },
        {
          "internalType": "string",
          "name": "_description",
          "type": "string"
        },
        {
          "internalType": "enum GovernanceDAO.ProposalType",
          "name": "_proposalType",
          "type": "uint8"
        },
        {
          "internalType": "address",
          "name": "_executionTarget",
          "type": "address"
        },
        {
          "internalType": "bytes",
          "name": "_executionData",
          "type": "bytes"
        }
      ],
      "name": "createProposal",
      "outputs": [
        {
          "internalType": "uint256",
          "name": "",
          "type": "uint256"
        }
      ],
      "stateMutability": "nonpayable",
      "type": "function"
    },
    {
      "inputs": [],
      "name": "decimals",
      "outputs": [
        {
          "internalType": "uint8",
          "name": "",
          "type": "uint8"
        }
      ],
      "stateMutability": "view",
      "type": "function"
    },
    {
      "inputs": [
        {
          "internalType": "address",
          "name": "_delegatee",
          "type": "address"
        }
      ],
      "name": "delegate",
      "outputs": [],
      "stateMutability": "nonpayable",
      "type": "function"
    },
    {
      "inputs": [
        {
          "internalType": "address",
          "name": "",
          "type": "address"
        }
      ],
      "name": "delegatedPower",
      "outputs": [
        {
          "internalType": "uint256",
          "name": "",
          "type": "uint256"
        }
      ],
      "stateMutability": "view",
      "type": "function"
    },
    {
      "inputs": [
        {
          "internalType": "address",
          "name": "",
          "type": "address"
        }
      ],
      "name": "delegates",
      "outputs": [
        {
          "internalType": "address",
          "name": "",
          "type": "address"
        }
      ],
      "stateMutability": "view",
      "type": "function"
    },
    {
      "inputs": [
        {
          "internalType": "uint256",
          "name": "_proposalId",
          "type": "uint256"
        }
      ],
      "name": "executeProposal",
      "outputs": [],
      "stateMutability": "nonpayable",
      "type": "function"
    },
    {
      "inputs": [
        {
          "internalType": "uint256",
          "name": "",
          "type": "uint256"
        }
      ],
      "name": "executionTargets",
      "outputs": [
        {
          "internalType": "address",
          "name": "",
          "type": "address"
        }
      ],
      "stateMutability": "view",
      "type": "function"
    },
    {
      "inputs": [
        {
          "internalType": "uint256",
          "name": "_proposalId",
          "type": "uint256"
        }
      ],
      "name": "getProposal",
      "outputs": [
        {
          "internalType": "uint256",
          "name": "id",
          "type": "uint256"
        },
        {
          "internalType": "address",
          "name": "proposer",
          "type": "address"
        },
        {
          "internalType": "string",
          "name": "title",
          "type": "string"
        },
        {
          "internalType": "string",
          "name": "description",
          "type": "string"
        },
        {
          "internalType": "uint256",
          "name": "startTime",
          "type": "uint256"
        },
        {
          "internalType": "uint256",
          "name": "endTime",
          "type": "uint256"
        },
        {
          "internalType": "uint256",
          "name": "forVotes",
          "type": "uint256"
        },
        {
          "internalType": "uint256",
          "name": "againstVotes",
          "type": "uint256"
        },
        {
          "internalType": "uint256",
          "name": "abstainVotes",
          "type": "uint256"
        },
        {
          "internalType": "bool",
          "name": "executed",
          "type": "bool"
        },
        {
          "internalType": "bool",
          "name": "cancelled",
          "type": "bool"
        },
        {
          "internalType": "enum GovernanceDAO.ProposalType",
          "name": "proposalType",
          "type": "uint8"
        }
      ],
      "stateMutability": "view",
      "type": "function"
    },
    {
      "inputs": [
        {
          "internalType": "address",
          "name": "_user",
          "type": "address"
        }
      ],
      "name": "getVotingPower",
      "outputs": [
        {
          "internalType": "uint256",
          "name": "",
          "type": "uint256"
        }
      ],
      "stateMutability": "view",
      "type": "function"
    },
    {
      "inputs": [],
      "name": "getVotingStats",
      "outputs": [
        {
          "internalType": "uint256",
          "name": "totalProposalsCount",
          "type": "uint256"
        },
        {
          "internalType": "uint256",
          "name": "totalVotesCastCount",
          "type": "uint256"
        },
        {
          "internalType": "uint256",
          "name": "activeProposals",
          "type": "uint256"
        },
        {
          "internalType": "uint256",
          "name": "executedProposals",
          "type": "uint256"
        }
      ],
      "stateMutability": "view",
      "type": "function"
    },
    {
      "inputs": [
        {
          "internalType": "uint256",
          "name": "_proposalId",
          "type": "uint256"
        }
      ],
      "name": "hasProposalPassed",
      "outputs": [
        {
          "internalType": "bool",
          "name": "",
          "type": "bool"
        }
      ],
      "stateMutability": "view",
      "type": "function"
    },
    {
      "inputs": [
        {
          "internalType": "uint256",
          "name": "",
          "type": "uint256"
        },
        {
          "internalType": "address",
          "name": "",
          "type": "address"
        }
      ],
      "name": "hasVoted",
      "outputs": [
        {
          "internalType": "bool",
          "name": "",
          "type": "bool"
        }
      ],
      "stateMutability": "view",
      "type": "function"
    },
    {
      "inputs": [
        {
          "internalType": "address",
          "name": "_to",
          "type": "address"
        },
        {
          "internalType": "uint256",
          "name": "_amount",
          "type": "uint256"
        },
        {
          "internalType": "string",
          "name": "_reason",
          "type": "string"
        }
      ],
      "name": "issueGovernanceTokens",
      "outputs": [],
      "stateMutability": "nonpayable",
      "type": "function"
    },
    {
      "inputs": [],
      "name": "name",
      "outputs": [
        {
          "internalType": "string",
          "name": "",
          "type": "string"
        }
      ],
      "stateMutability": "view",
      "type": "function"
    },
    {
      "inputs": [],
      "name": "nextProposalId",
      "outputs": [
        {
          "internalType": "uint256",
          "name": "",
          "type": "uint256"
        }
      ],
      "stateMutability": "view",
      "type": "function"
    },
    {
      "inputs": [],
      "name": "owner",
      "outputs": [
        {
          "internalType": "address",
          "name": "",
          "type": "address"
        }
      ],
      "stateMutability": "view",
      "type": "function"
    },
    {
      "inputs": [],
      "name": "pause",
      "outputs": [],
      "stateMutability": "nonpayable",
      "type": "function"
    },
    {
      "inputs": [],
      "name": "paused",
      "outputs": [
        {
          "internalType": "bool",
          "name": "",
          "type": "bool"
        }
      ],
      "stateMutability": "view",
      "type": "function"
    },
    {
      "inputs": [
        {
          "internalType": "uint256",
          "name": "",
          "type": "uint256"
        }
      ],
      "name": "proposals",
      "outputs": [
        {
          "internalType": "uint256",
          "name": "id",
          "type": "uint256"
        },
        {
          "internalType": "address",
          "name": "proposer",
          "type": "address"
        },
        {
          "internalType": "string",
          "name": "title",
          "type": "string"
        },
        {
          "internalType": "string",
          "name": "description",
          "type": "string"
        },
        {
          "internalType": "uint256",
          "name": "startTime",
          "type": "uint256"
        },
        {
          "internalType": "uint256",
          "name": "endTime",
          "type": "uint256"
        },
        {
          "internalType": "uint256",
          "name": "forVotes",
          "type": "uint256"
        },
        {
          "internalType": "uint256",
          "name": "againstVotes",
          "type": "uint256"
        },
        {
          "internalType": "uint256",
          "name": "abstainVotes",
          "type": "uint256"
        },
        {
          "internalType": "bool",
          "name": "executed",
          "type": "bool"
        },
        {
          "internalType": "bool",
          "name": "cancelled",
          "type": "bool"
        },
        {
          "internalType": "enum GovernanceDAO.ProposalType",
          "name": "proposalType",
          "type": "uint8"
        },
        {
          "internalType": "bytes",
          "name": "executionData",
          "type": "bytes"
        }
      ],
      "stateMutability": "view",
      "type": "function"
    },
    {
      "inputs": [
        {
          "internalType": "address",
          "name": "_minter",
          "type": "address"
        }
      ],
      "name": "removeMinter",
      "outputs": [],
      "stateMutability": "nonpayable",
      "type": "function"
    },
    {
      "inputs": [],
      "name": "renounceOwnership",
      "outputs": [],
      "stateMutability": "nonpayable",
      "type": "function"
    },
    {
      "inputs": [],
      "name": "symbol",
      "outputs": [
        {
          "internalType": "string",
          "name": "",
          "type": "string"
        }
      ],
      "stateMutability": "view",
      "type": "function"
    },
    {
      "inputs": [],
      "name": "totalProposals",
      "outputs": [
        {
          "internalType": "uint256",
          "name": "",
          "type": "uint256"
        }
      ],
      "stateMutability": "view",
      "type": "function"
    },
    {
      "inputs": [],
      "name": "totalSupply",
      "outputs": [
        {
          "internalType": "uint256",
          "name": "",
          "type": "uint256"
        }
      ],
      "stateMutability": "view",
      "type": "function"
    },
    {
      "inputs": [],
      "name": "totalVotesCast",
      "outputs": [
        {
          "internalType": "uint256",
          "name": "",
          "type": "uint256"
        }
      ],
      "stateMutability": "view",
      "type": "function"
    },
    {
      "inputs": [
        {
          "internalType": "address",
          "name": "to",
          "type": "address"
        },
        {
          "internalType": "uint256",
          "name": "amount",
          "type": "uint256"
        }
      ],
      "name": "transfer",
      "outputs": [
        {
          "internalType": "bool",
          "name": "",
          "type": "bool"
        }
      ],
      "stateMutability": "nonpayable",
      "type": "function"
    },
    {
      "inputs": [
        {
          "internalType": "address",
          "name": "from",
          "type": "address"
        },
        {
          "internalType": "address",
          "name": "to",
          "type": "address"
        },
        {
          "internalType": "uint256",
          "name": "amount",
          "type": "uint256"
        }
      ],
      "name": "transferFrom",
      "outputs": [
        {
          "internalType": "bool",
          "name": "",
          "type": "bool"
        }
      ],
      "stateMutability": "nonpayable",
      "type": "function"
    },
    {
      "inputs": [
        {
          "internalType": "address",
          "name": "newOwner",
          "type": "address"
        }
      ],
      "name": "transferOwnership",
      "outputs": [],
      "stateMutability": "nonpayable",
      "type": "function"
    },
    {
      "inputs": [],
      "name": "unpause",
      "outputs": [],
      "stateMutability": "nonpayable",
      "type": "function"
    },
    {
      "inputs": [
        {
          "internalType": "uint256",
          "name": "",
          "type": "uint256"
        },
        {
          "internalType": "address",
          "name": "",
          "type": "address"
        }
      ],
      "name": "votes",
      "outputs": [
        {
          "internalType": "enum GovernanceDAO.VoteType",
          "name": "",
          "type": "uint8"
        }
      ],
      "stateMutability": "view",
      "type": "function"
    },
    {
      "inputs": [
        {
          "internalType": "address",
          "name": "",
          "type": "address"
        }
      ],
      "name": "votingPower",
      "outputs": [
        {
          "internalType": "uint256",
          "name": "",
          "type": "uint256"
        }
      ],
      "stateMutability": "view",
      "type": "function"
    }
  ],
  "bytecode": "0x60806040526001600755600060085560006009553480156200002057600080fd5b50336040518060400160405280601b81526020017f506f776572436861696e20476f7665726e616e636520546f6b656e00000000008152506040518060400160405280600281526020016111d560f21b8152508160039081620000849190620003dc565b506004620000938282620003dc565b5050506001600160a01b038116620000c657604051631e4fbdf760e01b8152600060048201526024015b60405180910390fd5b620000d18162000124565b506001600655620000ed3369d3c21bcecceda100000062000176565b336000908152601060209081526040808320805460ff19166001179055600e909152902069d3c21bcecceda10000009055620004d0565b600580546001600160a01b038381166001600160a01b0319831681179093556040519116919082907f8be0079c531659141344cd1fd0a4f28419497f9722a3daafe3b4186f6b6457e090600090a35050565b6001600160a01b038216620001a25760405163ec442f0560e01b815260006004820152602401620000bd565b620001b060008383620001b4565b5050565b620001be620001d0565b620001cb83838362000205565b505050565b620001e4600554600160a01b900460ff1690565b15620002035760405163d93c066560e01b815260040160405180910390fd5b565b6001600160a01b03831662000234578060026000828254620002289190620004a8565b90915550620002a89050565b6001600160a01b03831660009081526020819052604090205481811015620002895760405163391434e360e21b81526001600160a01b03851660048201526024810182905260448101839052606401620000bd565b6001600160a01b03841660009081526020819052604090209082900390555b6001600160a01b038216620002c657600280548290039055620002e5565b6001600160a01b03821660009081526020819052604090208054820190555b816001600160a01b0316836001600160a01b03167fddf252ad1be2c89b69c2b068fc378daa952ba7f163c4a11628f55a4df523b3ef836040516200032b91815260200190565b60405180910390a3505050565b634e487b7160e01b600052604160045260246000fd5b600181811c908216806200036357607f821691505b6020821081036200038457634e487b7160e01b600052602260045260246000fd5b50919050565b601f821115620001cb57600081815260208120601f850160051c81016020861015620003b35750805b601f850160051c820191505b81811015620003d457828155600101620003bf565b505050505050565b81516001600160401b03811115620003f857620003f862000338565b62000410816200040984546200034e565b846200038a565b602080601f8311600181146200044857600084156200042f5750858301515b600019600386901b1c1916600185901b178555620003d4565b600085815260208120601f198616915b82811015620004795788860151825594840194600190910190840162000458565b5085821015620004985787850151600019600388901b60f8161c191681555b5050505050600190811b01905550565b80820180821115620004ca57634e487b7160e01b600052601160045260246000fd5b92915050565b6128d480620004e06000396000f3fe608060405234801561001057600080fd5b506004361061028a5760003560e01c8063671dd2751161015c578063a78d80fc116100ce578063c7f758a811610087578063c7f758a814610628578063d23254b414610653578063d6159fe51461068e578063dd62ed3e14610698578063e0a8f6f5146106d1578063f2fde38b146106e457600080fd5b8063a78d80fc14610596578063a9059cbb1461059f578063aa2fe91b146105b2578063b1610d7e146105d5578063bb4d4436146105df578063c07473f61461060857600080fd5b80637de418d5116101205780637de418d5146105495780638456cb59146105525780638da5cb5b1461055a57806395d89b411461056b578063983b2d5614610573578063a6c266031461058657600080fd5b8063671dd275146104cc57806370a08231146104dd578063715018a61461050657806376804a031461050e57806379cc67901461053657600080fd5b80632ff2e9dc1161020057806343859632116101b9578063438596321461042a5780635678138814610458578063587cde1e1461046b5780635c19a95c146104945780635c975abb146104a75780636414b6a1146104b957600080fd5b80632ff2e9dc146103ca5780633092afd5146103db578063313ce567146103ee57806332cb6b0c146103fd5780633f4ba83a1461040f57806342966c681461041757600080fd5b8063169df06411610252578063169df0641461035257806318160ddd146103805780632395037e1461038857806323b872dd1461039b5780632ab09d14146103ae5780632f9b148c146103b757600080fd5b8063013cf08b1461028f578063019a4df8146102c457806306fdde0314610305578063095ea7b31461031a5780630d61b5191461033d575b600080fd5b6102a261029d36600461210d565b6106f7565b6040516102bb9d9c9b9a99989796959493929190612196565b60405180910390f35b6102ed6102d236600461210d565b6011602052600090815260409020546001600160a01b031681565b6040516001600160a01b0390911681526020016102bb565b61030d61090a565b6040516102bb9190612244565b61032d610328366004612273565b61099c565b60405190151581526020016102bb565b61035061034b36600461210d565b6109b6565b005b61037261036036600461229d565b600f6020526000908152604090205481565b6040519081526020016102bb565b600254610372565b610372610396366004612364565b610c24565b61032d6103a936600461242b565b610f97565b61037260075481565b6103506103c5366004612467565b610fc7565b61037269d3c21bcecceda100000081565b6103506103e936600461229d565b61115f565b604051601281526020016102bb565b6103726a084595161401484a00000081565b610350611188565b61035061042536600461210d565b61119a565b61032d6104383660046124be565b600b60209081526000928352604080842090915290825290205460ff1681565b6103506104663660046124ea565b6111a4565b6102ed61047936600461229d565b600d602052600090815260409020546001600160a01b031681565b6103506104a236600461229d565b6114c3565b600554600160a01b900460ff1661032d565b61032d6104c736600461210d565b61160c565b610372690a968163f0a57b40000081565b6103726104eb36600461229d565b6001600160a01b031660009081526020819052604090205490565b610350611670565b610516611682565b6040805194855260208501939093529183015260608201526080016102bb565b610350610544366004612273565b61172d565b61037260095481565b610350611742565b6005546001600160a01b03166102ed565b61030d611752565b61035061058136600461229d565b611761565b610372683635c9adc5dea0000081565b61037260085481565b61032d6105ad366004612273565b61178d565b61032d6105c036600461229d565b60106020526000908152604090205460ff1681565b61037262093a8081565b6103726105ed36600461229d565b6001600160a01b03166000908152600e602052604090205490565b61037261061636600461229d565b600e6020526000908152604090205481565b61063b61063636600461210d565b6117bb565b6040516102bb9c9b9a9998979695949392919061251e565b6106816106613660046124be565b600c60209081526000928352604080842090915290825290205460ff1681565b6040516102bb91906125b0565b6103726201518081565b6103726106a63660046125ca565b6001600160a01b03918216600090815260016020908152604080832093909416825291909152205490565b6103506106df36600461210d565b611980565b6103506106f236600461229d565b611b28565b600a6020526000908152604090208054600182015460028301805492936001600160a01b0390921692610729906125f4565b80601f0160208091040260200160405190810160405280929190818152602001828054610755906125f4565b80156107a25780601f10610777576101008083540402835291602001916107a2565b820191906000526020600020905b81548152906001019060200180831161078557829003601f168201915b5050505050908060030180546107b7906125f4565b80601f01602080910402602001604051908101604052809291908181526020018280546107e3906125f4565b80156108305780601f1061080557610100808354040283529160200191610830565b820191906000526020600020905b81548152906001019060200180831161081357829003601f168201915b505050600484015460058501546006860154600787015460088801546009890154600a8a018054999a96999598509396509194909360ff8084169461010085048216946201000090049091169291610887906125f4565b80601f01602080910402602001604051908101604052809291908181526020018280546108b3906125f4565b80156109005780601f106108d557610100808354040283529160200191610900565b820191906000526020600020905b8154815290600101906020018083116108e357829003601f168201915b505050505090508d565b606060038054610919906125f4565b80601f0160208091040260200160405190810160405280929190818152602001828054610945906125f4565b80156109925780601f1061096757610100808354040283529160200191610992565b820191906000526020600020905b81548152906001019060200180831161097557829003601f168201915b5050505050905090565b6000336109aa818585611b63565b60019150505b92915050565b6109be611b70565b6109c6611b9b565b806000811180156109d8575060075481105b6109fd5760405162461bcd60e51b81526004016109f49061262e565b60405180910390fd5b6000818152600a6020526040902060090154610100900460ff1615610a345760405162461bcd60e51b81526004016109f49061265b565b6000828152600a6020526040902060058101544211610a8b5760405162461bcd60e51b8152602060048201526013602482015272566f74696e67207374696c6c2061637469766560681b60448201526064016109f4565b600981015460ff1615610ad35760405162461bcd60e51b815260206004820152601060248201526f105b1c9958591e48195e1958dd5d195960821b60448201526064016109f4565b6000610ade8461160c565b9050808015610b0357506000848152601160205260409020546001600160a01b031615155b15610bce576000848152601160205260408082205490516001600160a01b0390911690610b3490600a860190612687565b6000604051808303816000865af19150503d8060008114610b71576040519150601f19603f3d011682016040523d82523d6000602084013e610b76565b606091505b505060098401805460ff1916600117905560405190915085907f948f4a9cd986f1118c3fbd459f7a22b23c0693e1ca3ef06a6a8be5aa7d39cc0390610bc090841515815260200190565b60405180910390a250610c14565b60098201805460ff191660011790556040516000815284907f948f4a9cd986f1118c3fbd459f7a22b23c0693e1ca3ef06a6a8be5aa7d39cc039060200160405180910390a25b505050610c216001600655565b50565b6000610c2e611b70565b610c36611b9b565b33600090815260208190526040902054683635c9adc5dea000001115610cad5760405162461bcd60e51b815260206004820152602660248201527f496e73756666696369656e7420746f6b656e7320746f206372656174652070726044820152651bdc1bdcd85b60d21b60648201526084016109f4565b6000865111610cf65760405162461bcd60e51b81526020600482015260156024820152745469746c652063616e6e6f7420626520656d70747960581b60448201526064016109f4565b6000855111610d475760405162461bcd60e51b815260206004820152601b60248201527f4465736372697074696f6e2063616e6e6f7420626520656d707479000000000060448201526064016109f4565b6007805460009182610d5883612713565b9091555090506000610d6d620151804261272c565b90506000610d7e62093a808361272c565b9050604051806101a00160405280848152602001336001600160a01b031681526020018a8152602001898152602001838152602001828152602001600081526020016000815260200160008152602001600015158152602001600015158152602001886005811115610df257610df261216c565b815260209081018790526000858152600a825260409081902083518155918301516001830180546001600160a01b0319166001600160a01b039092169190911790558201516002820190610e46908261278d565b5060608201516003820190610e5b908261278d565b506080820151600482015560a082015160058083019190915560c0830151600683015560e0830151600783015561010080840151600884015561012084015160098401805461014087015161ffff1990911692151561ff00191692909217911515909202178082556101608501519262ff0000199091169062010000908490811115610ee957610ee961216c565b0217905550610180820151600a820190610f03908261278d565b505050600083815260116020526040812080546001600160a01b0319166001600160a01b0389161790556008805491610f3b83612713565b9190505550336001600160a01b0316837fe1a39bb955c12c02b24074e4d2e09a80ed84a64ce9b4454b47456e8a26f96e758b8b604051610f7c92919061284d565b60405180910390a35050600160065590505b95945050505050565b600080610fa5858585611bc5565b90508015610fbf57610fb685611be9565b610fbf84611be9565b949350505050565b3360009081526010602052604090205460ff1680610fef57506005546001600160a01b031633145b6110345760405162461bcd60e51b8152602060048201526016602482015275139bdd08185d5d1a1bdc9a5e9959081d1bc81b5a5b9d60521b60448201526064016109f4565b61103c611b9b565b6000821161108c5760405162461bcd60e51b815260206004820152601760248201527f416d6f756e74206d75737420626520706f73697469766500000000000000000060448201526064016109f4565b6a084595161401484a000000826110a260025490565b6110ac919061272c565b11156110fa5760405162461bcd60e51b815260206004820152601760248201527f576f756c6420657863656564206d617820737570706c7900000000000000000060448201526064016109f4565b6111048383611c66565b61110d83611be9565b826001600160a01b03167f15b633b1b68f2da63a06421de38a025a2d8b9205c6632e9ef304ca97d27231738383604051611148929190612872565b60405180910390a261115a6001600655565b505050565b611167611c9c565b6001600160a01b03166000908152601060205260409020805460ff19169055565b611190611c9c565b611198611cc9565b565b610c213382611d1e565b6111ac611b70565b6111b4611b9b565b816000811180156111c6575060075481105b6111e25760405162461bcd60e51b81526004016109f49061262e565b6000818152600a6020526040902060090154610100900460ff16156112195760405162461bcd60e51b81526004016109f49061265b565b6000838152600a6020526040902060048101548491904210156112735760405162461bcd60e51b8152602060048201526012602482015271159bdd1a5b99c81b9bdd081cdd185c9d195960721b60448201526064016109f4565b80600501544211156112b65760405162461bcd60e51b815260206004820152600c60248201526b159bdd1a5b99c8195b99195960a21b60448201526064016109f4565b6000858152600b6020908152604080832033845290915290205460ff16156113105760405162461bcd60e51b815260206004820152600d60248201526c105b1c9958591e481d9bdd1959609a1b60448201526064016109f4565b336000908152600e60205260409020548061135f5760405162461bcd60e51b815260206004820152600f60248201526e2737903b37ba34b733903837bbb2b960891b60448201526064016109f4565b6000868152600a6020526040902060018660028111156113815761138161216c565b036113a5578181600601600082825461139a919061272c565b909155506113ec9050565b60008660028111156113b9576113b961216c565b036113d2578181600701600082825461139a919061272c565b818160080160008282546113e6919061272c565b90915550505b6000878152600b60209081526040808320338085529083528184208054600160ff1991821681179092558c8652600c85528386209286529190935292208054899391929116908360028111156114445761144461216c565b02179055506009805490600061145983612713565b90915550339050877fcbdf6214089cba887ecbf35a0b6a734589959c9763342c756bb2a80ca2bc9f6e60018960028111156114965761149661216c565b60408051929091148252602082018790520160405180910390a350505050506114bf6001600655565b5050565b6114cb611b70565b336000818152600d6020526040812080546001600160a01b038581166001600160a01b03198316179092551691611517906001600160a01b031660009081526020819052604090205490565b90506001600160a01b03821615611556576001600160a01b0382166000908152600f60205260408120805483929061155090849061288b565b90915550505b6001600160a01b03831615611593576001600160a01b0383166000908152600f60205260408120805483929061158d90849061272c565b90915550505b61159c33611be9565b6001600160a01b038216156115b4576115b482611be9565b6001600160a01b038316156115cc576115cc83611be9565b6040516001600160a01b03808516919084169033907f575642a5a9da1b4cef50965a32dc8a002b6e46c69e58074c11277cc26cec71d190600090a4505050565b6000818152600a602052604081206008810154600782015460068301548492916116359161272c565b61163f919061272c565b9050690a968163f0a57b40000081101561165d575060009392505050565b5060078101546006909101541192915050565b611678611c9c565b6111986000611d54565b6000808080808060015b600754811015611718576000818152600a6020526040902060090154610100900460ff16611706576000818152600a602052604090206009015460ff16156116e057816116d881612713565b925050611706565b6000818152600a60205260409020600501544211611706578261170281612713565b9350505b8061171081612713565b91505061168c565b50600854600954909790965091945092509050565b611738823383611da6565b6114bf8282611d1e565b61174a611c9c565b611198611e25565b606060048054610919906125f4565b611769611c9c565b6001600160a01b03166000908152601060205260409020805460ff19166001179055565b60008061179a8484611e68565b905080156117b4576117ab33611be9565b6117b484611be9565b9392505050565b6000818152600a60205260408120805460018201546004830154600584015460068501546007860154600887015460098801546002890180548b9a60609a8b9a8d9a8b9a8b9a8b9a8b9a8b9a8b9a8b9a6001600160a01b0390981697909660038b01969095909490939092909160ff80831692610100810482169262010000909104909116908a9061184c906125f4565b80601f0160208091040260200160405190810160405280929190818152602001828054611878906125f4565b80156118c55780601f1061189a576101008083540402835291602001916118c5565b820191906000526020600020905b8154815290600101906020018083116118a857829003601f168201915b505050505099508880546118d8906125f4565b80601f0160208091040260200160405190810160405280929190818152602001828054611904906125f4565b80156119515780601f1061192657610100808354040283529160200191611951565b820191906000526020600020905b81548152906001019060200180831161193457829003601f168201915b505050505098509c509c509c509c509c509c509c509c509c509c509c509c505091939597999b5091939597999b565b611988611b70565b8060008111801561199a575060075481105b6119b65760405162461bcd60e51b81526004016109f49061262e565b6000818152600a6020526040902060090154610100900460ff16156119ed5760405162461bcd60e51b81526004016109f49061265b565b6000828152600a6020526040902060018101546001600160a01b0316331480611a2057506005546001600160a01b031633145b611a5d5760405162461bcd60e51b815260206004820152600e60248201526d139bdd08185d5d1a1bdc9a5e995960921b60448201526064016109f4565b600981015460ff1615611aa55760405162461bcd60e51b815260206004820152601060248201526f105b1c9958591e48195e1958dd5d195960821b60448201526064016109f4565b80600501544210611ae75760405162461bcd60e51b815260206004820152600c60248201526b159bdd1a5b99c8195b99195960a21b60448201526064016109f4565b60098101805461ff00191661010017905560405183907f416e669c63d9a3a5e36ee7cc7e2104b8db28ccd286aa18966e98fa230c73b08c90600090a2505050565b611b30611c9c565b6001600160a01b038116611b5a57604051631e4fbdf760e01b8152600060048201526024016109f4565b610c2181611d54565b61115a8383836001611e76565b600554600160a01b900460ff16156111985760405163d93c066560e01b815260040160405180910390fd5b600260065403611bbe57604051633ee5aeb560e01b815260040160405180910390fd5b6002600655565b600033611bd3858285611da6565b611bde858585611f4b565b506001949350505050565b6001600160a01b0381811660009081526020818152604080832054600f835281842054600d909352922054919290911615611c3e576001600160a01b0383166000908152600e60205260409020819055505050565b611c48818361272c565b6001600160a01b0384166000908152600e6020526040902055505050565b6001600160a01b038216611c905760405163ec442f0560e01b8152600060048201526024016109f4565b6114bf60008383611fa6565b6005546001600160a01b031633146111985760405163118cdaa760e01b81523360048201526024016109f4565b611cd1611fb9565b6005805460ff60a01b191690557f5db9ee0a495bf2e6ff9c91a7834c1ba4fdd244a5e8aa4e537bd38aeae4b073aa335b6040516001600160a01b03909116815260200160405180910390a1565b6001600160a01b038216611d4857604051634b637e8f60e11b8152600060048201526024016109f4565b6114bf82600083611fa6565b600580546001600160a01b038381166001600160a01b0319831681179093556040519116919082907f8be0079c531659141344cd1fd0a4f28419497f9722a3daafe3b4186f6b6457e090600090a35050565b6001600160a01b03838116600090815260016020908152604080832093861683529290522054600019811015611e1f5781811015611e1057604051637dc7a0d960e11b81526001600160a01b038416600482015260248101829052604481018390526064016109f4565b611e1f84848484036000611e76565b50505050565b611e2d611b70565b6005805460ff60a01b1916600160a01b1790557f62e78cea01bee320cd4e420270b5ea74000d11b0c9f74754ebdbfc544b05a258611d013390565b6000336109aa818585611f4b565b6001600160a01b038416611ea05760405163e602df0560e01b8152600060048201526024016109f4565b6001600160a01b038316611eca57604051634a1406b160e11b8152600060048201526024016109f4565b6001600160a01b0380851660009081526001602090815260408083209387168352929052208290558015611e1f57826001600160a01b0316846001600160a01b03167f8c5be1e5ebec7d5bd14f71427d1e84f3dd0314c0f7b2291e5b200ac8c7c3b92584604051611f3d91815260200190565b60405180910390a350505050565b6001600160a01b038316611f7557604051634b637e8f60e11b8152600060048201526024016109f4565b6001600160a01b038216611f9f5760405163ec442f0560e01b8152600060048201526024016109f4565b61115a8383835b611fae611b70565b61115a838383611fe3565b600554600160a01b900460ff1661119857604051638dfc202b60e01b815260040160405180910390fd5b6001600160a01b03831661200e578060026000828254612003919061272c565b909155506120809050565b6001600160a01b038316600090815260208190526040902054818110156120615760405163391434e360e21b81526001600160a01b038516600482015260248101829052604481018390526064016109f4565b6001600160a01b03841660009081526020819052604090209082900390555b6001600160a01b03821661209c576002805482900390556120bb565b6001600160a01b03821660009081526020819052604090208054820190555b816001600160a01b0316836001600160a01b03167fddf252ad1be2c89b69c2b068fc378daa952ba7f163c4a11628f55a4df523b3ef8360405161210091815260200190565b60405180910390a3505050565b60006020828403121561211f57600080fd5b5035919050565b6000815180845260005b8181101561214c57602081850181015186830182015201612130565b506000602082860101526020601f19601f83011685010191505092915050565b634e487b7160e01b600052602160045260246000fd5b600681106121925761219261216c565b9052565b8d81526001600160a01b038d1660208201526101a0604082018190526000906121c18382018f612126565b905082810360608401526121d5818e612126565b90508b60808401528a60a08401528960c08401528860e08401528761010084015261220561012084018815159052565b85151561014084015261221c610160840186612182565b82810361018084015261222f8185612126565b9150509e9d5050505050505050505050505050565b6020815260006117b46020830184612126565b80356001600160a01b038116811461226e57600080fd5b919050565b6000806040838503121561228657600080fd5b61228f83612257565b946020939093013593505050565b6000602082840312156122af57600080fd5b6117b482612257565b634e487b7160e01b600052604160045260246000fd5b600067ffffffffffffffff808411156122e9576122e96122b8565b604051601f8501601f19908116603f01168101908282118183101715612311576123116122b8565b8160405280935085815286868601111561232a57600080fd5b858560208301376000602087830101525050509392505050565b600082601f83011261235557600080fd5b6117b4838335602085016122ce565b600080600080600060a0868803121561237c57600080fd5b853567ffffffffffffffff8082111561239457600080fd5b6123a089838a01612344565b965060208801359150808211156123b657600080fd5b6123c289838a01612344565b955060408801359150600682106123d857600080fd5b8194506123e760608901612257565b935060808801359150808211156123fd57600080fd5b508601601f8101881361240f57600080fd5b61241e888235602084016122ce565b9150509295509295909350565b60008060006060848603121561244057600080fd5b61244984612257565b925061245760208501612257565b9150604084013590509250925092565b60008060006060848603121561247c57600080fd5b61248584612257565b925060208401359150604084013567ffffffffffffffff8111156124a857600080fd5b6124b486828701612344565b9150509250925092565b600080604083850312156124d157600080fd5b823591506124e160208401612257565b90509250929050565b600080604083850312156124fd57600080fd5b8235915060208301356003811061251357600080fd5b809150509250929050565b8c81526001600160a01b038c166020820152610180604082018190526000906125498382018e612126565b9050828103606084015261255d818d612126565b9150508960808301528860a08301528760c08301528660e08301528561010083015284151561012083015283151561014083015261259f610160830184612182565b9d9c50505050505050505050505050565b60208101600383106125c4576125c461216c565b91905290565b600080604083850312156125dd57600080fd5b6125e683612257565b91506124e160208401612257565b600181811c9082168061260857607f821691505b60208210810361262857634e487b7160e01b600052602260045260246000fd5b50919050565b602080825260139082015272125b9d985b1a59081c1c9bdc1bdcd85b081251606a1b604082015260600190565b602080825260129082015271141c9bdc1bdcd85b0818d85b98d95b1b195960721b604082015260600190565b6000808354612695816125f4565b600182811680156126ad57600181146126c2576126f1565b60ff19841687528215158302870194506126f1565b8760005260208060002060005b858110156126e85781548a8201529084019082016126cf565b50505082870194505b50929695505050505050565b634e487b7160e01b600052601160045260246000fd5b600060018201612725576127256126fd565b5060010190565b808201808211156109b0576109b06126fd565b601f82111561115a57600081815260208120601f850160051c810160208610156127665750805b601f850160051c820191505b8181101561278557828155600101612772565b505050505050565b815167ffffffffffffffff8111156127a7576127a76122b8565b6127bb816127b584546125f4565b8461273f565b602080601f8311600181146127f057600084156127d85750858301515b600019600386901b1c1916600185901b178555612785565b600085815260208120601f198616915b8281101561281f57888601518255948401946001909101908401612800565b508582101561283d5787850151600019600388901b60f8161c191681555b5050505050600190811b01905550565b6040815260006128606040830185612126565b8281036020840152610f8e8185612126565b828152604060208201526000610fbf6040830184612126565b818103818111156109b0576109b06126fd56fea2646970667358221220ec39517bae596d428e20a6a36e1e5c8a27056f75a1f42be83852cf67968fe14a64736f6c63430008140033",
  "linkReferences": {},
  "deployedLinkReferences": {}
}